{
  "contractName": "AugustusSwapper",
  "abi": [
    {
      "inputs": [
        {
          "internalType": "address payable",
          "name": "_feeWallet",
          "type": "address"
        }
      ],
      "stateMutability": "nonpayable",
      "type": "constructor"
    },
    {
      "anonymous": false,
      "inputs": [
        {
          "indexed": true,
          "internalType": "address",
          "name": "adapter",
          "type": "address"
        }
      ],
      "name": "AdapterInitialized",
      "type": "event"
    },
    {
      "anonymous": false,
      "inputs": [
        {
          "indexed": true,
          "internalType": "bytes32",
          "name": "role",
          "type": "bytes32"
        },
        {
          "indexed": true,
          "internalType": "bytes32",
          "name": "previousAdminRole",
          "type": "bytes32"
        },
        {
          "indexed": true,
          "internalType": "bytes32",
          "name": "newAdminRole",
          "type": "bytes32"
        }
      ],
      "name": "RoleAdminChanged",
      "type": "event"
    },
    {
      "anonymous": false,
      "inputs": [
        {
          "indexed": true,
          "internalType": "bytes32",
          "name": "role",
          "type": "bytes32"
        },
        {
          "indexed": true,
          "internalType": "address",
          "name": "account",
          "type": "address"
        },
        {
          "indexed": true,
          "internalType": "address",
          "name": "sender",
          "type": "address"
        }
      ],
      "name": "RoleGranted",
      "type": "event"
    },
    {
      "anonymous": false,
      "inputs": [
        {
          "indexed": true,
          "internalType": "bytes32",
          "name": "role",
          "type": "bytes32"
        },
        {
          "indexed": true,
          "internalType": "address",
          "name": "account",
          "type": "address"
        },
        {
          "indexed": true,
          "internalType": "address",
          "name": "sender",
          "type": "address"
        }
      ],
      "name": "RoleRevoked",
      "type": "event"
    },
    {
      "anonymous": false,
      "inputs": [
        {
          "indexed": true,
          "internalType": "address",
          "name": "router",
          "type": "address"
        }
      ],
      "name": "RouterInitialized",
      "type": "event"
    },
    {
      "stateMutability": "payable",
      "type": "fallback"
    },
    {
      "inputs": [],
      "name": "DEFAULT_ADMIN_ROLE",
      "outputs": [
        {
          "internalType": "bytes32",
          "name": "",
          "type": "bytes32"
        }
      ],
      "stateMutability": "view",
      "type": "function"
    },
    {
      "inputs": [],
      "name": "ROUTER_ROLE",
      "outputs": [
        {
          "internalType": "bytes32",
          "name": "",
          "type": "bytes32"
        }
      ],
      "stateMutability": "view",
      "type": "function"
    },
    {
      "inputs": [],
      "name": "WHITELISTED_ROLE",
      "outputs": [
        {
          "internalType": "bytes32",
          "name": "",
          "type": "bytes32"
        }
      ],
      "stateMutability": "view",
      "type": "function"
    },
    {
      "inputs": [
        {
          "internalType": "bytes32",
          "name": "role",
          "type": "bytes32"
        }
      ],
      "name": "getRoleAdmin",
      "outputs": [
        {
          "internalType": "bytes32",
          "name": "",
          "type": "bytes32"
        }
      ],
      "stateMutability": "view",
      "type": "function"
    },
    {
      "inputs": [
        {
          "internalType": "bytes32",
          "name": "role",
          "type": "bytes32"
        },
        {
          "internalType": "uint256",
          "name": "index",
          "type": "uint256"
        }
      ],
      "name": "getRoleMember",
      "outputs": [
        {
          "internalType": "address",
          "name": "",
          "type": "address"
        }
      ],
      "stateMutability": "view",
      "type": "function"
    },
    {
      "inputs": [
        {
          "internalType": "bytes32",
          "name": "role",
          "type": "bytes32"
        }
      ],
      "name": "getRoleMemberCount",
      "outputs": [
        {
          "internalType": "uint256",
          "name": "",
          "type": "uint256"
        }
      ],
      "stateMutability": "view",
      "type": "function"
    },
    {
      "inputs": [
        {
          "internalType": "bytes32",
          "name": "role",
          "type": "bytes32"
        },
        {
          "internalType": "address",
          "name": "account",
          "type": "address"
        }
      ],
      "name": "grantRole",
      "outputs": [],
      "stateMutability": "nonpayable",
      "type": "function"
    },
    {
      "inputs": [
        {
          "internalType": "bytes32",
          "name": "role",
          "type": "bytes32"
        },
        {
          "internalType": "address",
          "name": "account",
          "type": "address"
        }
      ],
      "name": "hasRole",
      "outputs": [
        {
          "internalType": "bool",
          "name": "",
          "type": "bool"
        }
      ],
      "stateMutability": "view",
      "type": "function"
    },
    {
      "inputs": [
        {
          "internalType": "bytes32",
          "name": "role",
          "type": "bytes32"
        },
        {
          "internalType": "address",
          "name": "account",
          "type": "address"
        }
      ],
      "name": "renounceRole",
      "outputs": [],
      "stateMutability": "nonpayable",
      "type": "function"
    },
    {
      "inputs": [
        {
          "internalType": "bytes32",
          "name": "role",
          "type": "bytes32"
        },
        {
          "internalType": "address",
          "name": "account",
          "type": "address"
        }
      ],
      "name": "revokeRole",
      "outputs": [],
      "stateMutability": "nonpayable",
      "type": "function"
    },
    {
      "stateMutability": "payable",
      "type": "receive"
    },
    {
      "inputs": [
        {
          "internalType": "address",
          "name": "adapter",
          "type": "address"
        },
        {
          "internalType": "bytes",
          "name": "data",
          "type": "bytes"
        }
      ],
      "name": "initializeAdapter",
      "outputs": [],
      "stateMutability": "nonpayable",
      "type": "function"
    },
    {
      "inputs": [
        {
          "internalType": "address",
          "name": "router",
          "type": "address"
        },
        {
          "internalType": "bytes",
          "name": "data",
          "type": "bytes"
        }
      ],
      "name": "initializeRouter",
      "outputs": [],
      "stateMutability": "nonpayable",
      "type": "function"
    },
    {
      "inputs": [
        {
          "internalType": "bytes4",
          "name": "selector",
          "type": "bytes4"
        }
      ],
      "name": "getImplementation",
      "outputs": [
        {
          "internalType": "address",
          "name": "",
          "type": "address"
        }
      ],
      "stateMutability": "view",
      "type": "function"
    },
    {
      "inputs": [],
      "name": "getVersion",
      "outputs": [
        {
          "internalType": "string",
          "name": "",
          "type": "string"
        }
      ],
      "stateMutability": "pure",
      "type": "function"
    },
    {
      "inputs": [
        {
          "internalType": "address",
          "name": "partner",
          "type": "address"
        }
      ],
      "name": "getPartnerFeeStructure",
      "outputs": [
        {
          "components": [
            {
              "internalType": "uint256",
              "name": "partnerShare",
              "type": "uint256"
            },
            {
              "internalType": "bool",
              "name": "noPositiveSlippage",
              "type": "bool"
            },
            {
              "internalType": "bool",
              "name": "positiveSlippageToUser",
              "type": "bool"
            },
            {
              "internalType": "uint16",
              "name": "feePercent",
              "type": "uint16"
            },
            {
              "internalType": "string",
              "name": "partnerId",
              "type": "string"
            },
            {
              "internalType": "bytes",
              "name": "data",
              "type": "bytes"
            }
          ],
          "internalType": "struct AugustusStorage.FeeStructure",
          "name": "",
          "type": "tuple"
        }
      ],
      "stateMutability": "view",
      "type": "function"
    },
    {
      "inputs": [],
      "name": "getFeeWallet",
      "outputs": [
        {
          "internalType": "address",
          "name": "",
          "type": "address"
        }
      ],
      "stateMutability": "view",
      "type": "function"
    },
    {
      "inputs": [
        {
          "internalType": "address payable",
          "name": "_feeWallet",
          "type": "address"
        }
      ],
      "name": "setFeeWallet",
      "outputs": [],
      "stateMutability": "nonpayable",
      "type": "function"
    },
    {
      "inputs": [
        {
          "internalType": "address",
          "name": "partner",
          "type": "address"
        },
        {
          "internalType": "uint256",
          "name": "_partnerShare",
          "type": "uint256"
        },
        {
          "internalType": "bool",
          "name": "_noPositiveSlippage",
          "type": "bool"
        },
        {
          "internalType": "bool",
          "name": "_positiveSlippageToUser",
          "type": "bool"
        },
        {
          "internalType": "uint16",
          "name": "_feePercent",
          "type": "uint16"
        },
        {
          "internalType": "string",
          "name": "partnerId",
          "type": "string"
        },
        {
          "internalType": "bytes",
          "name": "_data",
          "type": "bytes"
        }
      ],
      "name": "registerPartner",
      "outputs": [],
      "stateMutability": "nonpayable",
      "type": "function"
    },
    {
      "inputs": [
        {
          "internalType": "bytes4",
          "name": "selector",
          "type": "bytes4"
        },
        {
          "internalType": "address",
          "name": "implementation",
          "type": "address"
        }
      ],
      "name": "setImplementation",
      "outputs": [],
      "stateMutability": "nonpayable",
      "type": "function"
    },
    {
      "inputs": [
        {
          "internalType": "address",
          "name": "token",
          "type": "address"
        },
        {
          "internalType": "address payable",
          "name": "destination",
          "type": "address"
        },
        {
          "internalType": "uint256",
          "name": "amount",
          "type": "uint256"
        }
      ],
      "name": "transferTokens",
      "outputs": [],
      "stateMutability": "nonpayable",
      "type": "function"
    },
    {
      "inputs": [
        {
          "internalType": "bytes32",
          "name": "key",
          "type": "bytes32"
        }
      ],
      "name": "isAdapterInitialized",
      "outputs": [
        {
          "internalType": "bool",
          "name": "",
          "type": "bool"
        }
      ],
      "stateMutability": "view",
      "type": "function"
    },
    {
      "inputs": [
        {
          "internalType": "bytes32",
          "name": "key",
          "type": "bytes32"
        }
      ],
      "name": "getAdapterData",
      "outputs": [
        {
          "internalType": "bytes",
          "name": "",
          "type": "bytes"
        }
      ],
      "stateMutability": "view",
      "type": "function"
    },
    {
      "inputs": [
        {
          "internalType": "bytes32",
          "name": "key",
          "type": "bytes32"
        }
      ],
      "name": "isRouterInitialized",
      "outputs": [
        {
          "internalType": "bool",
          "name": "",
          "type": "bool"
        }
      ],
      "stateMutability": "view",
      "type": "function"
    },
    {
      "inputs": [
        {
          "internalType": "bytes32",
          "name": "key",
          "type": "bytes32"
        }
      ],
      "name": "getRouterData",
      "outputs": [
        {
          "internalType": "bytes",
          "name": "",
          "type": "bytes"
        }
      ],
      "stateMutability": "view",
      "type": "function"
    },
    {
      "inputs": [],
      "name": "getTokenTransferProxy",
      "outputs": [
        {
          "internalType": "address",
          "name": "",
          "type": "address"
        }
      ],
      "stateMutability": "view",
      "type": "function"
    }
  ],
  "bytecode": "0x60806040523480156200001157600080fd5b506040516200491e3803806200491e8339818101604052810190620000379190620002c1565b600060405162000047906200029c565b604051809103906000f08015801562000064573d6000803e3d6000fd5b509050806000806101000a81548173ffffffffffffffffffffffffffffffffffffffff021916908373ffffffffffffffffffffffffffffffffffffffff16021790555081600160006101000a81548173ffffffffffffffffffffffffffffffffffffffff021916908373ffffffffffffffffffffffffffffffffffffffff160217905550620000fd6000801b336200010560201b60201c565b50506200033b565b6200011782826200011b60201b60201c565b5050565b6200014a8160086000858152602001908152602001600020600001620001bf60201b620019531790919060201c565b15620001bb5762000160620001f760201b60201c565b73ffffffffffffffffffffffffffffffffffffffff168173ffffffffffffffffffffffffffffffffffffffff16837f2f8788117e7eff1d82e926ec794901d17c78024a50270940304540a733656f0d60405160405180910390a45b5050565b6000620001ef836000018373ffffffffffffffffffffffffffffffffffffffff1660001b620001ff60201b60201c565b905092915050565b600033905090565b60006200021383836200027960201b60201c565b6200026e57826000018290806001815401808255809150506001900390600052602060002001600090919091909150558260000180549050836001016000848152602001908152602001600020819055506001905062000273565b600090505b92915050565b600080836001016000848152602001908152602001600020541415905092915050565b610f5e80620039c083390190565b600081519050620002bb8162000321565b92915050565b600060208284031215620002d457600080fd5b6000620002e484828501620002aa565b91505092915050565b6000620002fa8262000301565b9050919050565b600073ffffffffffffffffffffffffffffffffffffffff82169050919050565b6200032c81620002ed565b81146200033857600080fd5b50565b613675806200034b6000396000f3fe60806040526004361061016a5760003560e01c80639010d07c116100d1578063a64b6e5f1161008a578063ca15c87311610064578063ca15c87314610708578063d2c4b59814610745578063d547741f14610770578063dc9cc6451461079957610171565b8063a64b6e5f14610679578063aa5b2458146106a2578063aa97ef02146106cb57610171565b80639010d07c1461053157806390d49b9d1461056e57806391d14854146105975780639812f33b146105d45780639a5a98d314610611578063a217fddf1461064e57610171565b806336568abe1161012357806336568abe1461040f5780633a9243d7146104385780635459060d1461047557806360e35507146104a05780636df77496146104c95780637a3226ec1461050657610171565b80630815f6fd146103015780630d8e6e2c1461032a5780631880021914610355578063248a9ca31461037e5780632f2ff15d146103bb57806330d643b5146103e457610171565b3661017157005b600080357fffffffff0000000000000000000000000000000000000000000000000000000016905060006101a4826107d6565b9050600073ffffffffffffffffffffffffffffffffffffffff168173ffffffffffffffffffffffffffffffffffffffff161415610273576102727f734e6e1c6ec3f883cac8d13d3e7390b280f5e94424662aa29e27394ed56586c9836040516024016102109190612c65565b604051602081830303815290604052907bffffffffffffffffffffffffffffffffffffffffffffffffffffffff19166020820180517bffffffffffffffffffffffffffffffffffffffffffffffffffffffff8381831617835250505050610851565b5b6000808273ffffffffffffffffffffffffffffffffffffffff1660003660405161029e929190612ba6565b600060405180830381855af49150503d80600081146102d9576040519150601f19603f3d011682016040523d82523d6000602084013e6102de565b606091505b5091509150816102f2576102f181610851565b5b6102fb81610859565b50505050005b34801561030d57600080fd5b5061032860048036038101906103239190612662565b610861565b005b34801561033657600080fd5b5061033f6109aa565b60405161034c9190612cc6565b60405180910390f35b34801561036157600080fd5b5061037c60048036038101906103779190612441565b6109e7565b005b34801561038a57600080fd5b506103a560048036038101906103a09190612598565b610c07565b6040516103b29190612c4a565b60405180910390f35b3480156103c757600080fd5b506103e260048036038101906103dd91906125c1565b610c27565b005b3480156103f057600080fd5b506103f9610c9b565b6040516104069190612c4a565b60405180910390f35b34801561041b57600080fd5b50610436600480360381019061043191906125c1565b610cbf565b005b34801561044457600080fd5b5061045f600480360381019061045a9190612598565b610d42565b60405161046c9190612c2f565b60405180910390f35b34801561048157600080fd5b5061048a610d6c565b6040516104979190612beb565b60405180910390f35b3480156104ac57600080fd5b506104c760048036038101906104c29190612441565b610d96565b005b3480156104d557600080fd5b506104f060048036038101906104eb91906123a0565b610fb6565b6040516104fd9190612f28565b60405180910390f35b34801561051257600080fd5b5061051b611193565b6040516105289190612c4a565b60405180910390f35b34801561053d57600080fd5b50610558600480360381019061055391906125fd565b6111b7565b6040516105659190612beb565b60405180910390f35b34801561057a57600080fd5b50610595600480360381019061059091906123c9565b6111e9565b005b3480156105a357600080fd5b506105be60048036038101906105b991906125c1565b6112e9565b6040516105cb9190612c2f565b60405180910390f35b3480156105e057600080fd5b506105fb60048036038101906105f69190612598565b61131b565b6040516106089190612c2f565b60405180910390f35b34801561061d57600080fd5b5061063860048036038101906106339190612598565b611345565b6040516106459190612ca4565b60405180910390f35b34801561065a57600080fd5b506106636113ea565b6040516106709190612c4a565b60405180910390f35b34801561068557600080fd5b506106a0600480360381019061069b91906123f2565b6113f1565b005b3480156106ae57600080fd5b506106c960048036038101906106c49190612499565b611577565b005b3480156106d757600080fd5b506106f260048036038101906106ed9190612598565b6117ea565b6040516106ff9190612ca4565b60405180910390f35b34801561071457600080fd5b5061072f600480360381019061072a9190612598565b61188f565b60405161073c9190612f4a565b60405180910390f35b34801561075157600080fd5b5061075a6118b6565b6040516107679190612beb565b60405180910390f35b34801561077c57600080fd5b50610797600480360381019061079291906125c1565b6118df565b005b3480156107a557600080fd5b506107c060048036038101906107bb9190612639565b6107d6565b6040516107cd9190612beb565b60405180910390f35b600060036000837bffffffffffffffffffffffffffffffffffffffffffffffffffffffff19167bffffffffffffffffffffffffffffffffffffffffffffffffffffffff1916815260200190815260200160002060009054906101000a900473ffffffffffffffffffffffffffffffffffffffff169050919050565b805160208201fd5b805160208201f35b61086e6000801b336112e9565b6108ad576040517f08c379a00000000000000000000000000000000000000000000000000000000081526004016108a490612ee8565b60405180910390fd5b6108d77f7a05a596cb0ce7fdea8a1e1ec73be300bdb35097c944ce1897202f7a13122eb2826112e9565b610916576040517f08c379a000000000000000000000000000000000000000000000000000000000815260040161090d90612e28565b60405180910390fd5b8060036000847bffffffffffffffffffffffffffffffffffffffffffffffffffffffff19167bffffffffffffffffffffffffffffffffffffffffffffffffffffffff1916815260200190815260200160002060006101000a81548173ffffffffffffffffffffffffffffffffffffffff021916908373ffffffffffffffffffffffffffffffffffffffff1602179055505050565b60606040518060400160405280600581526020017f352e302e30000000000000000000000000000000000000000000000000000000815250905090565b6109f46000801b336112e9565b610a33576040517f08c379a0000000000000000000000000000000000000000000000000000000008152600401610a2a90612ee8565b60405180910390fd5b610a5d7f8429d542926e6695b59ac6fbdcd9b37e8b1aeb757afab06ab60b1bb5878c3b49846112e9565b610a9c576040517f08c379a0000000000000000000000000000000000000000000000000000000008152600401610a9390612e88565b60405180910390fd5b60008373ffffffffffffffffffffffffffffffffffffffff1663439fab9160e01b8484604051602401610ad0929190612c80565b604051602081830303815290604052907bffffffffffffffffffffffffffffffffffffffffffffffffffffffff19166020820180517bffffffffffffffffffffffffffffffffffffffffffffffffffffffff8381831617835250505050604051610b3a9190612bbf565b600060405180830381855af49150503d8060008114610b75576040519150601f19603f3d011682016040523d82523d6000602084013e610b7a565b606091505b5050905080610bbe576040517f08c379a0000000000000000000000000000000000000000000000000000000008152600401610bb590612dc8565b60405180910390fd5b8373ffffffffffffffffffffffffffffffffffffffff167f4aa65286df310c4e8390d962c75f50380b8260d96ea27cf14847cd683e22d9db60405160405180910390a250505050565b600060086000838152602001908152602001600020600201549050919050565b610c4e6008600084815260200190815260200160002060020154610c49611983565b6112e9565b610c8d576040517f08c379a0000000000000000000000000000000000000000000000000000000008152600401610c8490612d28565b60405180910390fd5b610c97828261198b565b5050565b7f7a05a596cb0ce7fdea8a1e1ec73be300bdb35097c944ce1897202f7a13122eb281565b610cc7611983565b73ffffffffffffffffffffffffffffffffffffffff168173ffffffffffffffffffffffffffffffffffffffff1614610d34576040517f08c379a0000000000000000000000000000000000000000000000000000000008152600401610d2b90612f08565b60405180910390fd5b610d3e8282611a1f565b5050565b60006004600083815260200190815260200160002060009054906101000a900460ff169050919050565b6000600160009054906101000a900473ffffffffffffffffffffffffffffffffffffffff16905090565b610da36000801b336112e9565b610de2576040517f08c379a0000000000000000000000000000000000000000000000000000000008152600401610dd990612ee8565b60405180910390fd5b610e0c7f7a05a596cb0ce7fdea8a1e1ec73be300bdb35097c944ce1897202f7a13122eb2846112e9565b610e4b576040517f08c379a0000000000000000000000000000000000000000000000000000000008152600401610e4290612de8565b60405180910390fd5b60008373ffffffffffffffffffffffffffffffffffffffff1663439fab9160e01b8484604051602401610e7f929190612c80565b604051602081830303815290604052907bffffffffffffffffffffffffffffffffffffffffffffffffffffffff19166020820180517bffffffffffffffffffffffffffffffffffffffffffffffffffffffff8381831617835250505050604051610ee99190612bbf565b600060405180830381855af49150503d8060008114610f24576040519150601f19603f3d011682016040523d82523d6000602084013e610f29565b606091505b5050905080610f6d576040517f08c379a0000000000000000000000000000000000000000000000000000000008152600401610f6490612d88565b60405180910390fd5b8373ffffffffffffffffffffffffffffffffffffffff167f2622745e83f97f2d871ef785497c1eeba6f9bb94c7dd486cf28228e814d929e460405160405180910390a250505050565b610fbe6120fd565b600260008373ffffffffffffffffffffffffffffffffffffffff1673ffffffffffffffffffffffffffffffffffffffff1681526020019081526020016000206040518060c0016040529081600082015481526020016001820160009054906101000a900460ff161515151581526020016001820160019054906101000a900460ff161515151581526020016001820160029054906101000a900461ffff1661ffff1661ffff16815260200160028201805461107890613134565b80601f01602080910402602001604051908101604052809291908181526020018280546110a490613134565b80156110f15780601f106110c6576101008083540402835291602001916110f1565b820191906000526020600020905b8154815290600101906020018083116110d457829003601f168201915b5050505050815260200160038201805461110a90613134565b80601f016020809104026020016040519081016040528092919081815260200182805461113690613134565b80156111835780601f1061115857610100808354040283529160200191611183565b820191906000526020600020905b81548152906001019060200180831161116657829003601f168201915b5050505050815250509050919050565b7f8429d542926e6695b59ac6fbdcd9b37e8b1aeb757afab06ab60b1bb5878c3b4981565b60006111e18260086000868152602001908152602001600020600001611ab390919063ffffffff16565b905092915050565b6111f66000801b336112e9565b611235576040517f08c379a000000000000000000000000000000000000000000000000000000000815260040161122c90612ee8565b60405180910390fd5b600073ffffffffffffffffffffffffffffffffffffffff168173ffffffffffffffffffffffffffffffffffffffff1614156112a5576040517f08c379a000000000000000000000000000000000000000000000000000000000815260040161129c90612d48565b60405180910390fd5b80600160006101000a81548173ffffffffffffffffffffffffffffffffffffffff021916908373ffffffffffffffffffffffffffffffffffffffff16021790555050565b60006113138260086000868152602001908152602001600020600001611acd90919063ffffffff16565b905092915050565b60006007600083815260200190815260200160002060009054906101000a900460ff169050919050565b606060056000838152602001908152602001600020805461136590613134565b80601f016020809104026020016040519081016040528092919081815260200182805461139190613134565b80156113de5780601f106113b3576101008083540402835291602001916113de565b820191906000526020600020905b8154815290600101906020018083116113c157829003601f168201915b50505050509050919050565b6000801b81565b6113fe6000801b336112e9565b61143d576040517f08c379a000000000000000000000000000000000000000000000000000000000815260040161143490612ee8565b60405180910390fd5b60008111156115725773eeeeeeeeeeeeeeeeeeeeeeeeeeeeeeeeeeeeeeee73ffffffffffffffffffffffffffffffffffffffff168373ffffffffffffffffffffffffffffffffffffffff1614156115455760008273ffffffffffffffffffffffffffffffffffffffff1682612710906040516114b890612bd6565b600060405180830381858888f193505050503d80600081146114f6576040519150601f19603f3d011682016040523d82523d6000602084013e6114fb565b606091505b505090508061153f576040517f08c379a000000000000000000000000000000000000000000000000000000000815260040161153690612ce8565b60405180910390fd5b50611571565b61157082828573ffffffffffffffffffffffffffffffffffffffff16611afd9092919063ffffffff16565b5b5b505050565b6115846000801b336112e9565b6115c3576040517f08c379a00000000000000000000000000000000000000000000000000000000081526004016115ba90612ee8565b60405180910390fd5b600073ffffffffffffffffffffffffffffffffffffffff168973ffffffffffffffffffffffffffffffffffffffff161415611633576040517f08c379a000000000000000000000000000000000000000000000000000000000815260040161162a90612e68565b60405180910390fd5b6000600260008b73ffffffffffffffffffffffffffffffffffffffff1673ffffffffffffffffffffffffffffffffffffffff168152602001908152602001600020905060008160000154146116bd576040517f08c379a00000000000000000000000000000000000000000000000000000000081526004016116b490612da8565b60405180910390fd5b6000891180156116ce575061271089105b61170d576040517f08c379a000000000000000000000000000000000000000000000000000000000815260040161170490612d68565b60405180910390fd5b6127108661ffff161115611756576040517f08c379a000000000000000000000000000000000000000000000000000000000815260040161174d90612d68565b60405180910390fd5b888160000181905550878160010160006101000a81548160ff021916908315150217905550868160010160016101000a81548160ff02191690831515021790555084848260020191906117aa92919061213b565b50858160010160026101000a81548161ffff021916908361ffff16021790555082828260030191906117dd9291906121c1565b5050505050505050505050565b606060066000838152602001908152602001600020805461180a90613134565b80601f016020809104026020016040519081016040528092919081815260200182805461183690613134565b80156118835780601f1061185857610100808354040283529160200191611883565b820191906000526020600020905b81548152906001019060200180831161186657829003601f168201915b50505050509050919050565b60006118af60086000848152602001908152602001600020600001611b83565b9050919050565b60008060009054906101000a900473ffffffffffffffffffffffffffffffffffffffff16905090565b6119066008600084815260200190815260200160002060020154611901611983565b6112e9565b611945576040517f08c379a000000000000000000000000000000000000000000000000000000000815260040161193c90612e48565b60405180910390fd5b61194f8282611a1f565b5050565b600061197b836000018373ffffffffffffffffffffffffffffffffffffffff1660001b611b98565b905092915050565b600033905090565b6119b3816008600085815260200190815260200160002060000161195390919063ffffffff16565b15611a1b576119c0611983565b73ffffffffffffffffffffffffffffffffffffffff168173ffffffffffffffffffffffffffffffffffffffff16837f2f8788117e7eff1d82e926ec794901d17c78024a50270940304540a733656f0d60405160405180910390a45b5050565b611a478160086000858152602001908152602001600020600001611c0890919063ffffffff16565b15611aaf57611a54611983565b73ffffffffffffffffffffffffffffffffffffffff168173ffffffffffffffffffffffffffffffffffffffff16837ff6391f5c32d9c69d2a47ea670b442974b53935d1edc7fd64eb21e047a839171b60405160405180910390a45b5050565b6000611ac28360000183611c38565b60001c905092915050565b6000611af5836000018373ffffffffffffffffffffffffffffffffffffffff1660001b611cd2565b905092915050565b611b7e8363a9059cbb60e01b8484604051602401611b1c929190612c06565b604051602081830303815290604052907bffffffffffffffffffffffffffffffffffffffffffffffffffffffff19166020820180517bffffffffffffffffffffffffffffffffffffffffffffffffffffffff8381831617835250505050611cf5565b505050565b6000611b9182600001611dbc565b9050919050565b6000611ba48383611cd2565b611bfd578260000182908060018154018082558091505060019003906000526020600020016000909190919091505582600001805490508360010160008481526020019081526020016000208190555060019050611c02565b600090505b92915050565b6000611c30836000018373ffffffffffffffffffffffffffffffffffffffff1660001b611dcd565b905092915050565b600081836000018054905011611c83576040517f08c379a0000000000000000000000000000000000000000000000000000000008152600401611c7a90612d08565b60405180910390fd5b826000018281548110611cbf577f4e487b7100000000000000000000000000000000000000000000000000000000600052603260045260246000fd5b9060005260206000200154905092915050565b600080836001016000848152602001908152602001600020541415905092915050565b6000611d57826040518060400160405280602081526020017f5361666545524332303a206c6f772d6c6576656c2063616c6c206661696c65648152508573ffffffffffffffffffffffffffffffffffffffff16611f579092919063ffffffff16565b9050600081511115611db75780806020019051810190611d77919061256f565b611db6576040517f08c379a0000000000000000000000000000000000000000000000000000000008152600401611dad90612ec8565b60405180910390fd5b5b505050565b600081600001805490509050919050565b60008083600101600084815260200190815260200160002054905060008114611f4b576000600182611dff9190613020565b9050600060018660000180549050611e179190613020565b90506000866000018281548110611e57577f4e487b7100000000000000000000000000000000000000000000000000000000600052603260045260246000fd5b9060005260206000200154905080876000018481548110611ea1577f4e487b7100000000000000000000000000000000000000000000000000000000600052603260045260246000fd5b9060005260206000200181905550600183611ebc9190612fca565b8760010160008381526020019081526020016000208190555086600001805480611f0f577f4e487b7100000000000000000000000000000000000000000000000000000000600052603160045260246000fd5b60019003818190600052602060002001600090559055866001016000878152602001908152602001600020600090556001945050505050611f51565b60009150505b92915050565b6060611f668484600085611f6f565b90509392505050565b606082471015611fb4576040517f08c379a0000000000000000000000000000000000000000000000000000000008152600401611fab90612e08565b60405180910390fd5b611fbd85612083565b611ffc576040517f08c379a0000000000000000000000000000000000000000000000000000000008152600401611ff390612ea8565b60405180910390fd5b6000808673ffffffffffffffffffffffffffffffffffffffff1685876040516120259190612bbf565b60006040518083038185875af1925050503d8060008114612062576040519150601f19603f3d011682016040523d82523d6000602084013e612067565b606091505b5091509150612077828286612096565b92505050949350505050565b600080823b905060008111915050919050565b606083156120a6578290506120f6565b6000835111156120b95782518084602001fd5b816040517f08c379a00000000000000000000000000000000000000000000000000000000081526004016120ed9190612cc6565b60405180910390fd5b9392505050565b6040518060c0016040528060008152602001600015158152602001600015158152602001600061ffff16815260200160608152602001606081525090565b82805461214790613134565b90600052602060002090601f01602090048101928261216957600085556121b0565b82601f1061218257803560ff19168380011785556121b0565b828001600101855582156121b0579182015b828111156121af578235825591602001919060010190612194565b5b5090506121bd9190612247565b5090565b8280546121cd90613134565b90600052602060002090601f0160209004810192826121ef5760008555612236565b82601f1061220857803560ff1916838001178555612236565b82800160010185558215612236579182015b8281111561223557823582559160200191906001019061221a565b5b5090506122439190612247565b5090565b5b80821115612260576000816000905550600101612248565b5090565b6000813590506122738161359e565b92915050565b600081359050612288816135b5565b92915050565b60008135905061229d816135cc565b92915050565b6000815190506122b2816135cc565b92915050565b6000813590506122c7816135e3565b92915050565b6000813590506122dc816135fa565b92915050565b60008083601f8401126122f457600080fd5b8235905067ffffffffffffffff81111561230d57600080fd5b60208301915083600182028301111561232557600080fd5b9250929050565b60008083601f84011261233e57600080fd5b8235905067ffffffffffffffff81111561235757600080fd5b60208301915083600182028301111561236f57600080fd5b9250929050565b60008135905061238581613611565b92915050565b60008135905061239a81613628565b92915050565b6000602082840312156123b257600080fd5b60006123c084828501612264565b91505092915050565b6000602082840312156123db57600080fd5b60006123e984828501612279565b91505092915050565b60008060006060848603121561240757600080fd5b600061241586828701612264565b935050602061242686828701612279565b92505060406124378682870161238b565b9150509250925092565b60008060006040848603121561245657600080fd5b600061246486828701612264565b935050602084013567ffffffffffffffff81111561248157600080fd5b61248d868287016122e2565b92509250509250925092565b600080600080600080600080600060e08a8c0312156124b757600080fd5b60006124c58c828d01612264565b99505060206124d68c828d0161238b565b98505060406124e78c828d0161228e565b97505060606124f88c828d0161228e565b96505060806125098c828d01612376565b95505060a08a013567ffffffffffffffff81111561252657600080fd5b6125328c828d0161232c565b945094505060c08a013567ffffffffffffffff81111561255157600080fd5b61255d8c828d016122e2565b92509250509295985092959850929598565b60006020828403121561258157600080fd5b600061258f848285016122a3565b91505092915050565b6000602082840312156125aa57600080fd5b60006125b8848285016122b8565b91505092915050565b600080604083850312156125d457600080fd5b60006125e2858286016122b8565b92505060206125f385828601612264565b9150509250929050565b6000806040838503121561261057600080fd5b600061261e858286016122b8565b925050602061262f8582860161238b565b9150509250929050565b60006020828403121561264b57600080fd5b6000612659848285016122cd565b91505092915050565b6000806040838503121561267557600080fd5b6000612683858286016122cd565b925050602061269485828601612264565b9150509250929050565b6126a781613054565b82525050565b6126b681613078565b82525050565b6126c581613078565b82525050565b6126d481613084565b82525050565b6126e38161308e565b82525050565b60006126f58385612f8c565b93506127028385846130f2565b61270b836131c4565b840190509392505050565b60006127228385612f9d565b935061272f8385846130f2565b82840190509392505050565b600061274682612f65565b6127508185612f7b565b9350612760818560208601613101565b612769816131c4565b840191505092915050565b600061277f82612f65565b6127898185612f8c565b9350612799818560208601613101565b6127a2816131c4565b840191505092915050565b60006127b882612f65565b6127c28185612f9d565b93506127d2818560208601613101565b80840191505092915050565b60006127e982612f70565b6127f38185612fa8565b9350612803818560208601613101565b61280c816131c4565b840191505092915050565b600061282282612f70565b61282c8185612fb9565b935061283c818560208601613101565b612845816131c4565b840191505092915050565b600061285d601883612fb9565b9150612868826131d5565b602082019050919050565b6000612880602283612fb9565b915061288b826131fe565b604082019050919050565b60006128a3602f83612fb9565b91506128ae8261324d565b604082019050919050565b60006128c6600f83612fb9565b91506128d18261329c565b602082019050919050565b60006128e9600e83612fb9565b91506128f4826132c5565b602082019050919050565b600061290c601b83612fb9565b9150612917826132ee565b602082019050919050565b600061292f601283612fb9565b915061293a82613317565b602082019050919050565b6000612952601c83612fb9565b915061295d82613340565b602082019050919050565b6000612975601683612fb9565b915061298082613369565b602082019050919050565b6000612998602683612fb9565b91506129a382613392565b604082019050919050565b60006129bb601983612fb9565b91506129c6826133e1565b602082019050919050565b60006129de603083612fb9565b91506129e98261340a565b604082019050919050565b6000612a01600f83612fb9565b9150612a0c82613459565b602082019050919050565b6000612a24601883612fb9565b9150612a2f82613482565b602082019050919050565b6000612a47600083612f9d565b9150612a52826134ab565b600082019050919050565b6000612a6a601d83612fb9565b9150612a75826134ae565b602082019050919050565b6000612a8d602a83612fb9565b9150612a98826134d7565b604082019050919050565b6000612ab0601783612fb9565b9150612abb82613526565b602082019050919050565b6000612ad3602f83612fb9565b9150612ade8261354f565b604082019050919050565b600060c083016000830151612b016000860182612b88565b506020830151612b1460208601826126ad565b506040830151612b2760408601826126ad565b506060830151612b3a6060860182612b79565b5060808301518482036080860152612b5282826127de565b91505060a083015184820360a0860152612b6c828261273b565b9150508091505092915050565b612b82816130ba565b82525050565b612b91816130e8565b82525050565b612ba0816130e8565b82525050565b6000612bb3828486612716565b91508190509392505050565b6000612bcb82846127ad565b915081905092915050565b6000612be182612a3a565b9150819050919050565b6000602082019050612c00600083018461269e565b92915050565b6000604082019050612c1b600083018561269e565b612c286020830184612b97565b9392505050565b6000602082019050612c4460008301846126bc565b92915050565b6000602082019050612c5f60008301846126cb565b92915050565b6000602082019050612c7a60008301846126da565b92915050565b60006020820190508181036000830152612c9b8184866126e9565b90509392505050565b60006020820190508181036000830152612cbe8184612774565b905092915050565b60006020820190508181036000830152612ce08184612817565b905092915050565b60006020820190508181036000830152612d0181612850565b9050919050565b60006020820190508181036000830152612d2181612873565b9050919050565b60006020820190508181036000830152612d4181612896565b9050919050565b60006020820190508181036000830152612d61816128b9565b9050919050565b60006020820190508181036000830152612d81816128dc565b9050919050565b60006020820190508181036000830152612da1816128ff565b9050919050565b60006020820190508181036000830152612dc181612922565b9050919050565b60006020820190508181036000830152612de181612945565b9050919050565b60006020820190508181036000830152612e0181612968565b9050919050565b60006020820190508181036000830152612e218161298b565b9050919050565b60006020820190508181036000830152612e41816129ae565b9050919050565b60006020820190508181036000830152612e61816129d1565b9050919050565b60006020820190508181036000830152612e81816129f4565b9050919050565b60006020820190508181036000830152612ea181612a17565b9050919050565b60006020820190508181036000830152612ec181612a5d565b9050919050565b60006020820190508181036000830152612ee181612a80565b9050919050565b60006020820190508181036000830152612f0181612aa3565b9050919050565b60006020820190508181036000830152612f2181612ac6565b9050919050565b60006020820190508181036000830152612f428184612ae9565b905092915050565b6000602082019050612f5f6000830184612b97565b92915050565b600081519050919050565b600081519050919050565b600082825260208201905092915050565b600082825260208201905092915050565b600081905092915050565b600082825260208201905092915050565b600082825260208201905092915050565b6000612fd5826130e8565b9150612fe0836130e8565b9250827fffffffffffffffffffffffffffffffffffffffffffffffffffffffffffffffff0382111561301557613014613166565b5b828201905092915050565b600061302b826130e8565b9150613036836130e8565b92508282101561304957613048613166565b5b828203905092915050565b600061305f826130c8565b9050919050565b6000613071826130c8565b9050919050565b60008115159050919050565b6000819050919050565b60007fffffffff0000000000000000000000000000000000000000000000000000000082169050919050565b600061ffff82169050919050565b600073ffffffffffffffffffffffffffffffffffffffff82169050919050565b6000819050919050565b82818337600083830152505050565b60005b8381101561311f578082015181840152602081019050613104565b8381111561312e576000848401525b50505050565b6000600282049050600182168061314c57607f821691505b602082108114156131605761315f613195565b5b50919050565b7f4e487b7100000000000000000000000000000000000000000000000000000000600052601160045260246000fd5b7f4e487b7100000000000000000000000000000000000000000000000000000000600052602260045260246000fd5b6000601f19601f8301169050919050565b7f4661696c656420746f207472616e736665722045746865720000000000000000600082015250565b7f456e756d657261626c655365743a20696e646578206f7574206f6620626f756e60008201527f6473000000000000000000000000000000000000000000000000000000000000602082015250565b7f416363657373436f6e74726f6c3a2073656e646572206d75737420626520616e60008201527f2061646d696e20746f206772616e740000000000000000000000000000000000602082015250565b7f496e76616c696420616464726573730000000000000000000000000000000000600082015250565b7f496e76616c69642076616c756573000000000000000000000000000000000000600082015250565b7f4661696c656420746f20696e697469616c697a6520726f757465720000000000600082015250565b7f416c726561647920726567697374657265640000000000000000000000000000600082015250565b7f4661696c656420746f20696e697469616c697a65206164617074657200000000600082015250565b7f526f75746572206e6f742077686974656c697374656400000000000000000000600082015250565b7f416464726573733a20696e73756666696369656e742062616c616e636520666f60008201527f722063616c6c0000000000000000000000000000000000000000000000000000602082015250565b7f526f75746572206973206e6f742077686974656c697374656400000000000000600082015250565b7f416363657373436f6e74726f6c3a2073656e646572206d75737420626520616e60008201527f2061646d696e20746f207265766f6b6500000000000000000000000000000000602082015250565b7f496e76616c696420706172746e65720000000000000000000000000000000000600082015250565b7f45786368616e6765206e6f742077686974656c69737465640000000000000000600082015250565b50565b7f416464726573733a2063616c6c20746f206e6f6e2d636f6e7472616374000000600082015250565b7f5361666545524332303a204552433230206f7065726174696f6e20646964206e60008201527f6f74207375636365656400000000000000000000000000000000000000000000602082015250565b7f63616c6c6572206973206e6f74207468652061646d696e000000000000000000600082015250565b7f416363657373436f6e74726f6c3a2063616e206f6e6c792072656e6f756e636560008201527f20726f6c657320666f722073656c660000000000000000000000000000000000602082015250565b6135a781613054565b81146135b257600080fd5b50565b6135be81613066565b81146135c957600080fd5b50565b6135d581613078565b81146135e057600080fd5b50565b6135ec81613084565b81146135f757600080fd5b50565b6136038161308e565b811461360e57600080fd5b50565b61361a816130ba565b811461362557600080fd5b50565b613631816130e8565b811461363c57600080fd5b5056fea26469706673582212209c5fcc0867dfb6f74b926b557b0e12087044fc683cf1eb50d38414303343567764736f6c63430008010033608060405234801561001057600080fd5b5060006100216100c460201b60201c565b9050806000806101000a81548173ffffffffffffffffffffffffffffffffffffffff021916908373ffffffffffffffffffffffffffffffffffffffff1602179055508073ffffffffffffffffffffffffffffffffffffffff16600073ffffffffffffffffffffffffffffffffffffffff167f8be0079c531659141344cd1fd0a4f28419497f9722a3daafe3b4186f6b6457e060405160405180910390a3506100cc565b600033905090565b610e83806100db6000396000f3fe608060405234801561001057600080fd5b506004361061004c5760003560e01c806315dacbea14610051578063715018a61461006d5780638da5cb5b14610077578063f2fde38b14610095575b600080fd5b61006b600480360381019061006691906108b1565b6100b1565b005b61007561020d565b005b61007f610360565b60405161008c9190610aae565b60405180910390f35b6100af60048036038101906100aa9190610888565b610389565b005b6100b961054b565b73ffffffffffffffffffffffffffffffffffffffff1660008054906101000a900473ffffffffffffffffffffffffffffffffffffffff1673ffffffffffffffffffffffffffffffffffffffff1614610146576040517f08c379a000000000000000000000000000000000000000000000000000000000815260040161013d90610b82565b60405180910390fd5b3273ffffffffffffffffffffffffffffffffffffffff168373ffffffffffffffffffffffffffffffffffffffff16148061019b575061019a8373ffffffffffffffffffffffffffffffffffffffff16610553565b5b6101da576040517f08c379a00000000000000000000000000000000000000000000000000000000081526004016101d190610b62565b60405180910390fd5b6102078383838773ffffffffffffffffffffffffffffffffffffffff16610566909392919063ffffffff16565b50505050565b61021561054b565b73ffffffffffffffffffffffffffffffffffffffff1660008054906101000a900473ffffffffffffffffffffffffffffffffffffffff1673ffffffffffffffffffffffffffffffffffffffff16146102a2576040517f08c379a000000000000000000000000000000000000000000000000000000000815260040161029990610b82565b60405180910390fd5b600073ffffffffffffffffffffffffffffffffffffffff1660008054906101000a900473ffffffffffffffffffffffffffffffffffffffff1673ffffffffffffffffffffffffffffffffffffffff167f8be0079c531659141344cd1fd0a4f28419497f9722a3daafe3b4186f6b6457e060405160405180910390a360008060006101000a81548173ffffffffffffffffffffffffffffffffffffffff021916908373ffffffffffffffffffffffffffffffffffffffff160217905550565b60008060009054906101000a900473ffffffffffffffffffffffffffffffffffffffff16905090565b61039161054b565b73ffffffffffffffffffffffffffffffffffffffff1660008054906101000a900473ffffffffffffffffffffffffffffffffffffffff1673ffffffffffffffffffffffffffffffffffffffff161461041e576040517f08c379a000000000000000000000000000000000000000000000000000000000815260040161041590610b82565b60405180910390fd5b600073ffffffffffffffffffffffffffffffffffffffff168173ffffffffffffffffffffffffffffffffffffffff16141561048e576040517f08c379a000000000000000000000000000000000000000000000000000000000815260040161048590610b22565b60405180910390fd5b8073ffffffffffffffffffffffffffffffffffffffff1660008054906101000a900473ffffffffffffffffffffffffffffffffffffffff1673ffffffffffffffffffffffffffffffffffffffff167f8be0079c531659141344cd1fd0a4f28419497f9722a3daafe3b4186f6b6457e060405160405180910390a3806000806101000a81548173ffffffffffffffffffffffffffffffffffffffff021916908373ffffffffffffffffffffffffffffffffffffffff16021790555050565b600033905090565b600080823b905060008111915050919050565b6105e9846323b872dd60e01b85858560405160240161058793929190610ac9565b604051602081830303815290604052907bffffffffffffffffffffffffffffffffffffffffffffffffffffffff19166020820180517bffffffffffffffffffffffffffffffffffffffffffffffffffffffff83818316178352505050506105ef565b50505050565b6000610651826040518060400160405280602081526020017f5361666545524332303a206c6f772d6c6576656c2063616c6c206661696c65648152508573ffffffffffffffffffffffffffffffffffffffff166106b69092919063ffffffff16565b90506000815111156106b157808060200190518101906106719190610914565b6106b0576040517f08c379a00000000000000000000000000000000000000000000000000000000081526004016106a790610bc2565b60405180910390fd5b5b505050565b60606106c584846000856106ce565b90509392505050565b606082471015610713576040517f08c379a000000000000000000000000000000000000000000000000000000000815260040161070a90610b42565b60405180910390fd5b61071c85610553565b61075b576040517f08c379a000000000000000000000000000000000000000000000000000000000815260040161075290610ba2565b60405180910390fd5b6000808673ffffffffffffffffffffffffffffffffffffffff1685876040516107849190610a97565b60006040518083038185875af1925050503d80600081146107c1576040519150601f19603f3d011682016040523d82523d6000602084013e6107c6565b606091505b50915091506107d68282866107e2565b92505050949350505050565b606083156107f257829050610842565b6000835111156108055782518084602001fd5b816040517f08c379a00000000000000000000000000000000000000000000000000000000081526004016108399190610b00565b60405180910390fd5b9392505050565b60008135905061085881610e08565b92915050565b60008151905061086d81610e1f565b92915050565b60008135905061088281610e36565b92915050565b60006020828403121561089a57600080fd5b60006108a884828501610849565b91505092915050565b600080600080608085870312156108c757600080fd5b60006108d587828801610849565b94505060206108e687828801610849565b93505060406108f787828801610849565b925050606061090887828801610873565b91505092959194509250565b60006020828403121561092657600080fd5b60006109348482850161085e565b91505092915050565b61094681610c14565b82525050565b600061095782610be2565b6109618185610bf8565b9350610971818560208601610c5c565b80840191505092915050565b600061098882610bed565b6109928185610c03565b93506109a2818560208601610c5c565b6109ab81610c8f565b840191505092915050565b60006109c3602683610c03565b91506109ce82610ca0565b604082019050919050565b60006109e6602683610c03565b91506109f182610cef565b604082019050919050565b6000610a09601483610c03565b9150610a1482610d3e565b602082019050919050565b6000610a2c602083610c03565b9150610a3782610d67565b602082019050919050565b6000610a4f601d83610c03565b9150610a5a82610d90565b602082019050919050565b6000610a72602a83610c03565b9150610a7d82610db9565b604082019050919050565b610a9181610c52565b82525050565b6000610aa3828461094c565b915081905092915050565b6000602082019050610ac3600083018461093d565b92915050565b6000606082019050610ade600083018661093d565b610aeb602083018561093d565b610af86040830184610a88565b949350505050565b60006020820190508181036000830152610b1a818461097d565b905092915050565b60006020820190508181036000830152610b3b816109b6565b9050919050565b60006020820190508181036000830152610b5b816109d9565b9050919050565b60006020820190508181036000830152610b7b816109fc565b9050919050565b60006020820190508181036000830152610b9b81610a1f565b9050919050565b60006020820190508181036000830152610bbb81610a42565b9050919050565b60006020820190508181036000830152610bdb81610a65565b9050919050565b600081519050919050565b600081519050919050565b600081905092915050565b600082825260208201905092915050565b6000610c1f82610c32565b9050919050565b60008115159050919050565b600073ffffffffffffffffffffffffffffffffffffffff82169050919050565b6000819050919050565b60005b83811015610c7a578082015181840152602081019050610c5f565b83811115610c89576000848401525b50505050565b6000601f19601f8301169050919050565b7f4f776e61626c653a206e6577206f776e657220697320746865207a65726f206160008201527f6464726573730000000000000000000000000000000000000000000000000000602082015250565b7f416464726573733a20696e73756666696369656e742062616c616e636520666f60008201527f722063616c6c0000000000000000000000000000000000000000000000000000602082015250565b7f496e76616c69642066726f6d2061646472657373000000000000000000000000600082015250565b7f4f776e61626c653a2063616c6c6572206973206e6f7420746865206f776e6572600082015250565b7f416464726573733a2063616c6c20746f206e6f6e2d636f6e7472616374000000600082015250565b7f5361666545524332303a204552433230206f7065726174696f6e20646964206e60008201527f6f74207375636365656400000000000000000000000000000000000000000000602082015250565b610e1181610c14565b8114610e1c57600080fd5b50565b610e2881610c26565b8114610e3357600080fd5b50565b610e3f81610c52565b8114610e4a57600080fd5b5056fea2646970667358221220d44cc5082fe63a076c0553b945f464f7767461e919e6165fadedecd8081fa5e364736f6c63430008010033",
  "immutableReferences": {},
  "source": "// File: openzeppelin-solidity/contracts/utils/EnumerableSet.sol\r\n\r\n\r\n\r\npragma solidity 0.8.1;\r\n\r\n/**\r\n * @dev Library for managing\r\n * https://en.wikipedia.org/wiki/Set_(abstract_data_type)[sets] of primitive\r\n * types.\r\n *\r\n * Sets have the following properties:\r\n *\r\n * - Elements are added, removed, and checked for existence in constant time\r\n * (O(1)).\r\n * - Elements are enumerated in O(n). No guarantees are made on the ordering.\r\n *\r\n * ```\r\n * contract Example {\r\n *     // Add the library methods\r\n *     using EnumerableSet for EnumerableSet.AddressSet;\r\n *\r\n *     // Declare a set state variable\r\n *     EnumerableSet.AddressSet private mySet;\r\n * }\r\n * ```\r\n *\r\n * As of v3.3.0, sets of type `bytes32` (`Bytes32Set`), `address` (`AddressSet`)\r\n * and `uint256` (`UintSet`) are supported.\r\n */\r\n\r\nlibrary EnumerableSet {\r\n    // To implement this library for multiple types with as little code\r\n    // repetition as possible, we write it in terms of a generic Set type with\r\n    // bytes32 values.\r\n    // The Set implementation uses private functions, and user-facing\r\n    // implementations (such as AddressSet) are just wrappers around the\r\n    // underlying Set.\r\n    // This means that we can only create new EnumerableSets for types that fit\r\n    // in bytes32.\r\n\r\n    struct Set {\r\n        // Storage of set values\r\n        bytes32[] _values;\r\n\r\n        // Position of the value in the `values` array, plus 1 because index 0\r\n        // means a value is not in the set.\r\n        mapping (bytes32 => uint256) _indexes;\r\n    }\r\n\r\n    /**\r\n     * @dev Add a value to a set. O(1).\r\n     *\r\n     * Returns true if the value was added to the set, that is if it was not\r\n     * already present.\r\n     */\r\n    function _add(Set storage set, bytes32 value) private returns (bool) {\r\n        if (!_contains(set, value)) {\r\n            set._values.push(value);\r\n            // The value is stored at length-1, but we add 1 to all indexes\r\n            // and use 0 as a sentinel value\r\n            set._indexes[value] = set._values.length;\r\n            return true;\r\n        } else {\r\n            return false;\r\n        }\r\n    }\r\n\r\n    /**\r\n     * @dev Removes a value from a set. O(1).\r\n     *\r\n     * Returns true if the value was removed from the set, that is if it was\r\n     * present.\r\n     */\r\n    function _remove(Set storage set, bytes32 value) private returns (bool) {\r\n        // We read and store the value's index to prevent multiple reads from the same storage slot\r\n        uint256 valueIndex = set._indexes[value];\r\n\r\n        if (valueIndex != 0) { // Equivalent to contains(set, value)\r\n            // To delete an element from the _values array in O(1), we swap the element to delete with the last one in\r\n            // the array, and then remove the last element (sometimes called as 'swap and pop').\r\n            // This modifies the order of the array, as noted in {at}.\r\n\r\n            uint256 toDeleteIndex = valueIndex - 1;\r\n            uint256 lastIndex = set._values.length - 1;\r\n\r\n            // When the value to delete is the last one, the swap operation is unnecessary. However, since this occurs\r\n            // so rarely, we still do the swap anyway to avoid the gas cost of adding an 'if' statement.\r\n\r\n            bytes32 lastvalue = set._values[lastIndex];\r\n\r\n            // Move the last value to the index where the value to delete is\r\n            set._values[toDeleteIndex] = lastvalue;\r\n            // Update the index for the moved value\r\n            set._indexes[lastvalue] = toDeleteIndex + 1; // All indexes are 1-based\r\n\r\n            // Delete the slot where the moved value was stored\r\n            set._values.pop();\r\n\r\n            // Delete the index for the deleted slot\r\n            delete set._indexes[value];\r\n\r\n            return true;\r\n        } else {\r\n            return false;\r\n        }\r\n    }\r\n\r\n    /**\r\n     * @dev Returns true if the value is in the set. O(1).\r\n     */\r\n    function _contains(Set storage set, bytes32 value) private view returns (bool) {\r\n        return set._indexes[value] != 0;\r\n    }\r\n\r\n    /**\r\n     * @dev Returns the number of values on the set. O(1).\r\n     */\r\n    function _length(Set storage set) private view returns (uint256) {\r\n        return set._values.length;\r\n    }\r\n\r\n   /**\r\n    * @dev Returns the value stored at position `index` in the set. O(1).\r\n    *\r\n    * Note that there are no guarantees on the ordering of values inside the\r\n    * array, and it may change when more values are added or removed.\r\n    *\r\n    * Requirements:\r\n    *\r\n    * - `index` must be strictly less than {length}.\r\n    */\r\n    function _at(Set storage set, uint256 index) private view returns (bytes32) {\r\n        require(set._values.length > index, \"EnumerableSet: index out of bounds\");\r\n        return set._values[index];\r\n    }\r\n\r\n    // Bytes32Set\r\n\r\n    struct Bytes32Set {\r\n        Set _inner;\r\n    }\r\n\r\n    /**\r\n     * @dev Add a value to a set. O(1).\r\n     *\r\n     * Returns true if the value was added to the set, that is if it was not\r\n     * already present.\r\n     */\r\n    function add(Bytes32Set storage set, bytes32 value) internal returns (bool) {\r\n        return _add(set._inner, value);\r\n    }\r\n\r\n    /**\r\n     * @dev Removes a value from a set. O(1).\r\n     *\r\n     * Returns true if the value was removed from the set, that is if it was\r\n     * present.\r\n     */\r\n    function remove(Bytes32Set storage set, bytes32 value) internal returns (bool) {\r\n        return _remove(set._inner, value);\r\n    }\r\n\r\n    /**\r\n     * @dev Returns true if the value is in the set. O(1).\r\n     */\r\n    function contains(Bytes32Set storage set, bytes32 value) internal view returns (bool) {\r\n        return _contains(set._inner, value);\r\n    }\r\n\r\n    /**\r\n     * @dev Returns the number of values in the set. O(1).\r\n     */\r\n    function length(Bytes32Set storage set) internal view returns (uint256) {\r\n        return _length(set._inner);\r\n    }\r\n\r\n   /**\r\n    * @dev Returns the value stored at position `index` in the set. O(1).\r\n    *\r\n    * Note that there are no guarantees on the ordering of values inside the\r\n    * array, and it may change when more values are added or removed.\r\n    *\r\n    * Requirements:\r\n    *\r\n    * - `index` must be strictly less than {length}.\r\n    */\r\n    function at(Bytes32Set storage set, uint256 index) internal view returns (bytes32) {\r\n        return _at(set._inner, index);\r\n    }\r\n\r\n    // AddressSet\r\n\r\n    struct AddressSet {\r\n        Set _inner;\r\n    }\r\n\r\n    /**\r\n     * @dev Add a value to a set. O(1).\r\n     *\r\n     * Returns true if the value was added to the set, that is if it was not\r\n     * already present.\r\n     */\r\n    function add(AddressSet storage set, address value) internal returns (bool) {\r\n        return _add(set._inner, bytes32(uint256(uint160(value))));\r\n    }\r\n\r\n    /**\r\n     * @dev Removes a value from a set. O(1).\r\n     *\r\n     * Returns true if the value was removed from the set, that is if it was\r\n     * present.\r\n     */\r\n    function remove(AddressSet storage set, address value) internal returns (bool) {\r\n        return _remove(set._inner, bytes32(uint256(uint160(value))));\r\n    }\r\n\r\n    /**\r\n     * @dev Returns true if the value is in the set. O(1).\r\n     */\r\n    function contains(AddressSet storage set, address value) internal view returns (bool) {\r\n        return _contains(set._inner, bytes32(uint256(uint160(value))));\r\n    }\r\n\r\n    /**\r\n     * @dev Returns the number of values in the set. O(1).\r\n     */\r\n    function length(AddressSet storage set) internal view returns (uint256) {\r\n        return _length(set._inner);\r\n    }\r\n\r\n   /**\r\n    * @dev Returns the value stored at position `index` in the set. O(1).\r\n    *\r\n    * Note that there are no guarantees on the ordering of values inside the\r\n    * array, and it may change when more values are added or removed.\r\n    *\r\n    * Requirements:\r\n    *\r\n    * - `index` must be strictly less than {length}.\r\n    */\r\n    function at(AddressSet storage set, uint256 index) internal view returns (address) {\r\n        return address(uint160(uint256(_at(set._inner, index))));\r\n    }\r\n\r\n\r\n    // UintSet\r\n\r\n    struct UintSet {\r\n        Set _inner;\r\n    }\r\n\r\n    /**\r\n     * @dev Add a value to a set. O(1).\r\n     *\r\n     * Returns true if the value was added to the set, that is if it was not\r\n     * already present.\r\n     */\r\n    function add(UintSet storage set, uint256 value) internal returns (bool) {\r\n        return _add(set._inner, bytes32(value));\r\n    }\r\n\r\n    /**\r\n     * @dev Removes a value from a set. O(1).\r\n     *\r\n     * Returns true if the value was removed from the set, that is if it was\r\n     * present.\r\n     */\r\n    function remove(UintSet storage set, uint256 value) internal returns (bool) {\r\n        return _remove(set._inner, bytes32(value));\r\n    }\r\n\r\n    /**\r\n     * @dev Returns true if the value is in the set. O(1).\r\n     */\r\n    function contains(UintSet storage set, uint256 value) internal view returns (bool) {\r\n        return _contains(set._inner, bytes32(value));\r\n    }\r\n\r\n    /**\r\n     * @dev Returns the number of values on the set. O(1).\r\n     */\r\n    function length(UintSet storage set) internal view returns (uint256) {\r\n        return _length(set._inner);\r\n    }\r\n\r\n   /**\r\n    * @dev Returns the value stored at position `index` in the set. O(1).\r\n    *\r\n    * Note that there are no guarantees on the ordering of values inside the\r\n    * array, and it may change when more values are added or removed.\r\n    *\r\n    * Requirements:\r\n    *\r\n    * - `index` must be strictly less than {length}.\r\n    */\r\n    function at(UintSet storage set, uint256 index) internal view returns (uint256) {\r\n        return uint256(_at(set._inner, index));\r\n    }\r\n}\r\n\r\n// File: openzeppelin-solidity/contracts/utils/Address.sol\r\n\r\n\r\n\r\npragma solidity 0.8.1;\r\n\r\n/**\r\n * @dev Collection of functions related to the address type\r\n */\r\nlibrary Address {\r\n    /**\r\n     * @dev Returns true if `account` is a contract.\r\n     *\r\n     * [IMPORTANT]\r\n     * ====\r\n     * It is unsafe to assume that an address for which this function returns\r\n     * false is an externally-owned account (EOA) and not a contract.\r\n     *\r\n     * Among others, `isContract` will return false for the following\r\n     * types of addresses:\r\n     *\r\n     *  - an externally-owned account\r\n     *  - a contract in construction\r\n     *  - an address where a contract will be created\r\n     *  - an address where a contract lived, but was destroyed\r\n     * ====\r\n     */\r\n    function isContract(address account) internal view returns (bool) {\r\n        // This method relies on extcodesize, which returns 0 for contracts in\r\n        // construction, since the code is only stored at the end of the\r\n        // constructor execution.\r\n\r\n        uint256 size;\r\n        // solhint-disable-next-line no-inline-assembly\r\n        assembly { size := extcodesize(account) }\r\n        return size > 0;\r\n    }\r\n\r\n    /**\r\n     * @dev Replacement for Solidity's `transfer`: sends `amount` wei to\r\n     * `recipient`, forwarding all available gas and reverting on errors.\r\n     *\r\n     * https://eips.ethereum.org/EIPS/eip-1884[EIP1884] increases the gas cost\r\n     * of certain opcodes, possibly making contracts go over the 2300 gas limit\r\n     * imposed by `transfer`, making them unable to receive funds via\r\n     * `transfer`. {sendValue} removes this limitation.\r\n     *\r\n     * https://diligence.consensys.net/posts/2019/09/stop-using-soliditys-transfer-now/[Learn more].\r\n     *\r\n     * IMPORTANT: because control is transferred to `recipient`, care must be\r\n     * taken to not create reentrancy vulnerabilities. Consider using\r\n     * {ReentrancyGuard} or the\r\n     * https://solidity.readthedocs.io/en/v0.5.11/security-considerations.html#use-the-checks-effects-interactions-pattern[checks-effects-interactions pattern].\r\n     */\r\n    function sendValue(address payable recipient, uint256 amount) internal {\r\n        require(address(this).balance >= amount, \"Address: insufficient balance\");\r\n\r\n        // solhint-disable-next-line avoid-low-level-calls, avoid-call-value\r\n        (bool success, ) = recipient.call{ value: amount }(\"\");\r\n        require(success, \"Address: unable to send value, recipient may have reverted\");\r\n    }\r\n\r\n    /**\r\n     * @dev Performs a Solidity function call using a low level `call`. A\r\n     * plain`call` is an unsafe replacement for a function call: use this\r\n     * function instead.\r\n     *\r\n     * If `target` reverts with a revert reason, it is bubbled up by this\r\n     * function (like regular Solidity function calls).\r\n     *\r\n     * Returns the raw returned data. To convert to the expected return value,\r\n     * use https://solidity.readthedocs.io/en/latest/units-and-global-variables.html?highlight=abi.decode#abi-encoding-and-decoding-functions[`abi.decode`].\r\n     *\r\n     * Requirements:\r\n     *\r\n     * - `target` must be a contract.\r\n     * - calling `target` with `data` must not revert.\r\n     *\r\n     * _Available since v3.1._\r\n     */\r\n    function functionCall(address target, bytes memory data) internal returns (bytes memory) {\r\n      return functionCall(target, data, \"Address: low-level call failed\");\r\n    }\r\n\r\n    /**\r\n     * @dev Same as {xref-Address-functionCall-address-bytes-}[`functionCall`], but with\r\n     * `errorMessage` as a fallback revert reason when `target` reverts.\r\n     *\r\n     * _Available since v3.1._\r\n     */\r\n    function functionCall(address target, bytes memory data, string memory errorMessage) internal returns (bytes memory) {\r\n        return functionCallWithValue(target, data, 0, errorMessage);\r\n    }\r\n\r\n    /**\r\n     * @dev Same as {xref-Address-functionCall-address-bytes-}[`functionCall`],\r\n     * but also transferring `value` wei to `target`.\r\n     *\r\n     * Requirements:\r\n     *\r\n     * - the calling contract must have an ETH balance of at least `value`.\r\n     * - the called Solidity function must be `payable`.\r\n     *\r\n     * _Available since v3.1._\r\n     */\r\n    function functionCallWithValue(address target, bytes memory data, uint256 value) internal returns (bytes memory) {\r\n        return functionCallWithValue(target, data, value, \"Address: low-level call with value failed\");\r\n    }\r\n\r\n    /**\r\n     * @dev Same as {xref-Address-functionCallWithValue-address-bytes-uint256-}[`functionCallWithValue`], but\r\n     * with `errorMessage` as a fallback revert reason when `target` reverts.\r\n     *\r\n     * _Available since v3.1._\r\n     */\r\n    function functionCallWithValue(address target, bytes memory data, uint256 value, string memory errorMessage) internal returns (bytes memory) {\r\n        require(address(this).balance >= value, \"Address: insufficient balance for call\");\r\n        require(isContract(target), \"Address: call to non-contract\");\r\n\r\n        // solhint-disable-next-line avoid-low-level-calls\r\n        (bool success, bytes memory returndata) = target.call{ value: value }(data);\r\n        return _verifyCallResult(success, returndata, errorMessage);\r\n    }\r\n\r\n    /**\r\n     * @dev Same as {xref-Address-functionCall-address-bytes-}[`functionCall`],\r\n     * but performing a static call.\r\n     *\r\n     * _Available since v3.3._\r\n     */\r\n    function functionStaticCall(address target, bytes memory data) internal view returns (bytes memory) {\r\n        return functionStaticCall(target, data, \"Address: low-level static call failed\");\r\n    }\r\n\r\n    /**\r\n     * @dev Same as {xref-Address-functionCall-address-bytes-string-}[`functionCall`],\r\n     * but performing a static call.\r\n     *\r\n     * _Available since v3.3._\r\n     */\r\n    function functionStaticCall(address target, bytes memory data, string memory errorMessage) internal view returns (bytes memory) {\r\n        require(isContract(target), \"Address: static call to non-contract\");\r\n\r\n        // solhint-disable-next-line avoid-low-level-calls\r\n        (bool success, bytes memory returndata) = target.staticcall(data);\r\n        return _verifyCallResult(success, returndata, errorMessage);\r\n    }\r\n\r\n    function _verifyCallResult(bool success, bytes memory returndata, string memory errorMessage) private pure returns(bytes memory) {\r\n        if (success) {\r\n            return returndata;\r\n        } else {\r\n            // Look for revert reason and bubble it up if present\r\n            if (returndata.length > 0) {\r\n                // The easiest way to bubble the revert reason is using memory via assembly\r\n\r\n                // solhint-disable-next-line no-inline-assembly\r\n                assembly {\r\n                    let returndata_size := mload(returndata)\r\n                    revert(add(32, returndata), returndata_size)\r\n                }\r\n            } else {\r\n                revert(errorMessage);\r\n            }\r\n        }\r\n    }\r\n}\r\n\r\n// File: openzeppelin-solidity/contracts/GSN/Context.sol\r\n\r\n\r\n\r\npragma solidity 0.8.1;\r\n\r\n/*\r\n * @dev Provides information about the current execution context, including the\r\n * sender of the transaction and its data. While these are generally available\r\n * via msg.sender and msg.data, they should not be accessed in such a direct\r\n * manner, since when dealing with GSN meta-transactions the account sending and\r\n * paying for execution may not be the actual sender (as far as an application\r\n * is concerned).\r\n *\r\n * This contract is only required for intermediate, library-like contracts.\r\n */\r\nabstract contract Context {\r\n    function _msgSender() internal view virtual returns (address payable) {\r\n        return payable(msg.sender);\r\n    }\r\n\r\n    function _msgData() internal view virtual returns (bytes memory) {\r\n        this; // silence state mutability warning without generating bytecode - see https://github.com/ethereum/solidity/issues/2691\r\n        return msg.data;\r\n    }\r\n}\r\n\r\n// File: openzeppelin-solidity/contracts/access/AccessControl.sol\r\n\r\n\r\n\r\npragma solidity 0.8.1;\r\n\r\n\r\n\r\n\r\n/**\r\n * @dev Contract module that allows children to implement role-based access\r\n * control mechanisms.\r\n *\r\n * Roles are referred to by their `bytes32` identifier. These should be exposed\r\n * in the external API and be unique. The best way to achieve this is by\r\n * using `public constant` hash digests:\r\n *\r\n * ```\r\n * bytes32 public constant MY_ROLE = keccak256(\"MY_ROLE\");\r\n * ```\r\n *\r\n * Roles can be used to represent a set of permissions. To restrict access to a\r\n * function call, use {hasRole}:\r\n *\r\n * ```\r\n * function foo() public {\r\n *     require(hasRole(MY_ROLE, msg.sender));\r\n *     ...\r\n * }\r\n * ```\r\n *\r\n * Roles can be granted and revoked dynamically via the {grantRole} and\r\n * {revokeRole} functions. Each role has an associated admin role, and only\r\n * accounts that have a role's admin role can call {grantRole} and {revokeRole}.\r\n *\r\n * By default, the admin role for all roles is `DEFAULT_ADMIN_ROLE`, which means\r\n * that only accounts with this role will be able to grant or revoke other\r\n * roles. More complex role relationships can be created by using\r\n * {_setRoleAdmin}.\r\n *\r\n * WARNING: The `DEFAULT_ADMIN_ROLE` is also its own admin: it has permission to\r\n * grant and revoke this role. Extra precautions should be taken to secure\r\n * accounts that have been granted it.\r\n */\r\nabstract contract AccessControl is Context {\r\n    using EnumerableSet for EnumerableSet.AddressSet;\r\n    using Address for address;\r\n\r\n    struct RoleData {\r\n        EnumerableSet.AddressSet members;\r\n        bytes32 adminRole;\r\n    }\r\n\r\n    mapping (bytes32 => RoleData) private _roles;\r\n\r\n    bytes32 public constant DEFAULT_ADMIN_ROLE = 0x00;\r\n\r\n    /**\r\n     * @dev Emitted when `newAdminRole` is set as ``role``'s admin role, replacing `previousAdminRole`\r\n     *\r\n     * `DEFAULT_ADMIN_ROLE` is the starting admin for all roles, despite\r\n     * {RoleAdminChanged} not being emitted signaling this.\r\n     *\r\n     * _Available since v3.1._\r\n     */\r\n    event RoleAdminChanged(bytes32 indexed role, bytes32 indexed previousAdminRole, bytes32 indexed newAdminRole);\r\n\r\n    /**\r\n     * @dev Emitted when `account` is granted `role`.\r\n     *\r\n     * `sender` is the account that originated the contract call, an admin role\r\n     * bearer except when using {_setupRole}.\r\n     */\r\n    event RoleGranted(bytes32 indexed role, address indexed account, address indexed sender);\r\n\r\n    /**\r\n     * @dev Emitted when `account` is revoked `role`.\r\n     *\r\n     * `sender` is the account that originated the contract call:\r\n     *   - if using `revokeRole`, it is the admin role bearer\r\n     *   - if using `renounceRole`, it is the role bearer (i.e. `account`)\r\n     */\r\n    event RoleRevoked(bytes32 indexed role, address indexed account, address indexed sender);\r\n\r\n    /**\r\n     * @dev Returns `true` if `account` has been granted `role`.\r\n     */\r\n    function hasRole(bytes32 role, address account) public view returns (bool) {\r\n        return _roles[role].members.contains(account);\r\n    }\r\n\r\n    /**\r\n     * @dev Returns the number of accounts that have `role`. Can be used\r\n     * together with {getRoleMember} to enumerate all bearers of a role.\r\n     */\r\n    function getRoleMemberCount(bytes32 role) public view returns (uint256) {\r\n        return _roles[role].members.length();\r\n    }\r\n\r\n    /**\r\n     * @dev Returns one of the accounts that have `role`. `index` must be a\r\n     * value between 0 and {getRoleMemberCount}, non-inclusive.\r\n     *\r\n     * Role bearers are not sorted in any particular way, and their ordering may\r\n     * change at any point.\r\n     *\r\n     * WARNING: When using {getRoleMember} and {getRoleMemberCount}, make sure\r\n     * you perform all queries on the same block. See the following\r\n     * https://forum.openzeppelin.com/t/iterating-over-elements-on-enumerableset-in-openzeppelin-contracts/2296[forum post]\r\n     * for more information.\r\n     */\r\n    function getRoleMember(bytes32 role, uint256 index) public view returns (address) {\r\n        return _roles[role].members.at(index);\r\n    }\r\n\r\n    /**\r\n     * @dev Returns the admin role that controls `role`. See {grantRole} and\r\n     * {revokeRole}.\r\n     *\r\n     * To change a role's admin, use {_setRoleAdmin}.\r\n     */\r\n    function getRoleAdmin(bytes32 role) public view returns (bytes32) {\r\n        return _roles[role].adminRole;\r\n    }\r\n\r\n    /**\r\n     * @dev Grants `role` to `account`.\r\n     *\r\n     * If `account` had not been already granted `role`, emits a {RoleGranted}\r\n     * event.\r\n     *\r\n     * Requirements:\r\n     *\r\n     * - the caller must have ``role``'s admin role.\r\n     */\r\n    function grantRole(bytes32 role, address account) public virtual {\r\n        require(hasRole(_roles[role].adminRole, _msgSender()), \"AccessControl: sender must be an admin to grant\");\r\n\r\n        _grantRole(role, account);\r\n    }\r\n\r\n    /**\r\n     * @dev Revokes `role` from `account`.\r\n     *\r\n     * If `account` had been granted `role`, emits a {RoleRevoked} event.\r\n     *\r\n     * Requirements:\r\n     *\r\n     * - the caller must have ``role``'s admin role.\r\n     */\r\n    function revokeRole(bytes32 role, address account) public virtual {\r\n        require(hasRole(_roles[role].adminRole, _msgSender()), \"AccessControl: sender must be an admin to revoke\");\r\n\r\n        _revokeRole(role, account);\r\n    }\r\n\r\n    /**\r\n     * @dev Revokes `role` from the calling account.\r\n     *\r\n     * Roles are often managed via {grantRole} and {revokeRole}: this function's\r\n     * purpose is to provide a mechanism for accounts to lose their privileges\r\n     * if they are compromised (such as when a trusted device is misplaced).\r\n     *\r\n     * If the calling account had been granted `role`, emits a {RoleRevoked}\r\n     * event.\r\n     *\r\n     * Requirements:\r\n     *\r\n     * - the caller must be `account`.\r\n     */\r\n    function renounceRole(bytes32 role, address account) public virtual {\r\n        require(account == _msgSender(), \"AccessControl: can only renounce roles for self\");\r\n\r\n        _revokeRole(role, account);\r\n    }\r\n\r\n    /**\r\n     * @dev Grants `role` to `account`.\r\n     *\r\n     * If `account` had not been already granted `role`, emits a {RoleGranted}\r\n     * event. Note that unlike {grantRole}, this function doesn't perform any\r\n     * checks on the calling account.\r\n     *\r\n     * [WARNING]\r\n     * ====\r\n     * This function should only be called from the constructor when setting\r\n     * up the initial roles for the system.\r\n     *\r\n     * Using this function in any other way is effectively circumventing the admin\r\n     * system imposed by {AccessControl}.\r\n     * ====\r\n     */\r\n    function _setupRole(bytes32 role, address account) internal virtual {\r\n        _grantRole(role, account);\r\n    }\r\n\r\n    /**\r\n     * @dev Sets `adminRole` as ``role``'s admin role.\r\n     *\r\n     * Emits a {RoleAdminChanged} event.\r\n     */\r\n    function _setRoleAdmin(bytes32 role, bytes32 adminRole) internal virtual {\r\n        emit RoleAdminChanged(role, _roles[role].adminRole, adminRole);\r\n        _roles[role].adminRole = adminRole;\r\n    }\r\n\r\n    function _grantRole(bytes32 role, address account) private {\r\n        if (_roles[role].members.add(account)) {\r\n            emit RoleGranted(role, account, _msgSender());\r\n        }\r\n    }\r\n\r\n    function _revokeRole(bytes32 role, address account) private {\r\n        if (_roles[role].members.remove(account)) {\r\n            emit RoleRevoked(role, account, _msgSender());\r\n        }\r\n    }\r\n}\r\n\r\n// File: openzeppelin-solidity/contracts/token/ERC20/IERC20.sol\r\n\r\n\r\n\r\npragma solidity 0.8.1;\r\n\r\n/**\r\n * @dev Interface of the ERC20 standard as defined in the EIP.\r\n */\r\ninterface IERC20 {\r\n    /**\r\n     * @dev Returns the amount of tokens in existence.\r\n     */\r\n    function totalSupply() external view returns (uint256);\r\n\r\n    /**\r\n     * @dev Returns the amount of tokens owned by `account`.\r\n     */\r\n    function balanceOf(address account) external view returns (uint256);\r\n\r\n    /**\r\n     * @dev Moves `amount` tokens from the caller's account to `recipient`.\r\n     *\r\n     * Returns a boolean value indicating whether the operation succeeded.\r\n     *\r\n     * Emits a {Transfer} event.\r\n     */\r\n    function transfer(address recipient, uint256 amount) external returns (bool);\r\n\r\n    /**\r\n     * @dev Returns the remaining number of tokens that `spender` will be\r\n     * allowed to spend on behalf of `owner` through {transferFrom}. This is\r\n     * zero by default.\r\n     *\r\n     * This value changes when {approve} or {transferFrom} are called.\r\n     */\r\n    function allowance(address owner, address spender) external view returns (uint256);\r\n\r\n    /**\r\n     * @dev Sets `amount` as the allowance of `spender` over the caller's tokens.\r\n     *\r\n     * Returns a boolean value indicating whether the operation succeeded.\r\n     *\r\n     * IMPORTANT: Beware that changing an allowance with this method brings the risk\r\n     * that someone may use both the old and the new allowance by unfortunate\r\n     * transaction ordering. One possible solution to mitigate this race\r\n     * condition is to first reduce the spender's allowance to 0 and set the\r\n     * desired value afterwards:\r\n     * https://github.com/ethereum/EIPs/issues/20#issuecomment-263524729\r\n     *\r\n     * Emits an {Approval} event.\r\n     */\r\n    function approve(address spender, uint256 amount) external returns (bool);\r\n\r\n    /**\r\n     * @dev Moves `amount` tokens from `sender` to `recipient` using the\r\n     * allowance mechanism. `amount` is then deducted from the caller's\r\n     * allowance.\r\n     *\r\n     * Returns a boolean value indicating whether the operation succeeded.\r\n     *\r\n     * Emits a {Transfer} event.\r\n     */\r\n    function transferFrom(address sender, address recipient, uint256 amount) external returns (bool);\r\n\r\n    /**\r\n     * @dev Emitted when `value` tokens are moved from one account (`from`) to\r\n     * another (`to`).\r\n     *\r\n     * Note that `value` may be zero.\r\n     */\r\n    event Transfer(address indexed from, address indexed to, uint256 value);\r\n\r\n    /**\r\n     * @dev Emitted when the allowance of a `spender` for an `owner` is set by\r\n     * a call to {approve}. `value` is the new allowance.\r\n     */\r\n    event Approval(address indexed owner, address indexed spender, uint256 value);\r\n}\r\n\r\n// File: openzeppelin-solidity/contracts/math/SafeMath.sol\r\n\r\n\r\n\r\npragma solidity 0.8.1;\r\n\r\n/**\r\n * @dev Wrappers over Solidity's arithmetic operations with added overflow\r\n * checks.\r\n *\r\n * Arithmetic operations in Solidity wrap on overflow. This can easily result\r\n * in bugs, because programmers usually assume that an overflow raises an\r\n * error, which is the standard behavior in high level programming languages.\r\n * `SafeMath` restores this intuition by reverting the transaction when an\r\n * operation overflows.\r\n *\r\n * Using this library instead of the unchecked operations eliminates an entire\r\n * class of bugs, so it's recommended to use it always.\r\n */\r\nlibrary SafeMath {\r\n    /**\r\n     * @dev Returns the addition of two unsigned integers, reverting on\r\n     * overflow.\r\n     *\r\n     * Counterpart to Solidity's `+` operator.\r\n     *\r\n     * Requirements:\r\n     *\r\n     * - Addition cannot overflow.\r\n     */\r\n    function add(uint256 a, uint256 b) internal pure returns (uint256) {\r\n        uint256 c = a + b;\r\n        require(c >= a, \"SafeMath: addition overflow\");\r\n\r\n        return c;\r\n    }\r\n\r\n    /**\r\n     * @dev Returns the subtraction of two unsigned integers, reverting on\r\n     * overflow (when the result is negative).\r\n     *\r\n     * Counterpart to Solidity's `-` operator.\r\n     *\r\n     * Requirements:\r\n     *\r\n     * - Subtraction cannot overflow.\r\n     */\r\n    function sub(uint256 a, uint256 b) internal pure returns (uint256) {\r\n        return sub(a, b, \"SafeMath: subtraction overflow\");\r\n    }\r\n\r\n    /**\r\n     * @dev Returns the subtraction of two unsigned integers, reverting with custom message on\r\n     * overflow (when the result is negative).\r\n     *\r\n     * Counterpart to Solidity's `-` operator.\r\n     *\r\n     * Requirements:\r\n     *\r\n     * - Subtraction cannot overflow.\r\n     */\r\n    function sub(uint256 a, uint256 b, string memory errorMessage) internal pure returns (uint256) {\r\n        require(b <= a, errorMessage);\r\n        uint256 c = a - b;\r\n\r\n        return c;\r\n    }\r\n\r\n    /**\r\n     * @dev Returns the multiplication of two unsigned integers, reverting on\r\n     * overflow.\r\n     *\r\n     * Counterpart to Solidity's `*` operator.\r\n     *\r\n     * Requirements:\r\n     *\r\n     * - Multiplication cannot overflow.\r\n     */\r\n    function mul(uint256 a, uint256 b) internal pure returns (uint256) {\r\n        // Gas optimization: this is cheaper than requiring 'a' not being zero, but the\r\n        // benefit is lost if 'b' is also tested.\r\n        // See: https://github.com/OpenZeppelin/openzeppelin-contracts/pull/522\r\n        if (a == 0) {\r\n            return 0;\r\n        }\r\n\r\n        uint256 c = a * b;\r\n        require(c / a == b, \"SafeMath: multiplication overflow\");\r\n\r\n        return c;\r\n    }\r\n\r\n    /**\r\n     * @dev Returns the integer division of two unsigned integers. Reverts on\r\n     * division by zero. The result is rounded towards zero.\r\n     *\r\n     * Counterpart to Solidity's `/` operator. Note: this function uses a\r\n     * `revert` opcode (which leaves remaining gas untouched) while Solidity\r\n     * uses an invalid opcode to revert (consuming all remaining gas).\r\n     *\r\n     * Requirements:\r\n     *\r\n     * - The divisor cannot be zero.\r\n     */\r\n    function div(uint256 a, uint256 b) internal pure returns (uint256) {\r\n        return div(a, b, \"SafeMath: division by zero\");\r\n    }\r\n\r\n    /**\r\n     * @dev Returns the integer division of two unsigned integers. Reverts with custom message on\r\n     * division by zero. The result is rounded towards zero.\r\n     *\r\n     * Counterpart to Solidity's `/` operator. Note: this function uses a\r\n     * `revert` opcode (which leaves remaining gas untouched) while Solidity\r\n     * uses an invalid opcode to revert (consuming all remaining gas).\r\n     *\r\n     * Requirements:\r\n     *\r\n     * - The divisor cannot be zero.\r\n     */\r\n    function div(uint256 a, uint256 b, string memory errorMessage) internal pure returns (uint256) {\r\n        require(b > 0, errorMessage);\r\n        uint256 c = a / b;\r\n        // assert(a == b * c + a % b); // There is no case in which this doesn't hold\r\n\r\n        return c;\r\n    }\r\n\r\n    /**\r\n     * @dev Returns the remainder of dividing two unsigned integers. (unsigned integer modulo),\r\n     * Reverts when dividing by zero.\r\n     *\r\n     * Counterpart to Solidity's `%` operator. This function uses a `revert`\r\n     * opcode (which leaves remaining gas untouched) while Solidity uses an\r\n     * invalid opcode to revert (consuming all remaining gas).\r\n     *\r\n     * Requirements:\r\n     *\r\n     * - The divisor cannot be zero.\r\n     */\r\n    function mod(uint256 a, uint256 b) internal pure returns (uint256) {\r\n        return mod(a, b, \"SafeMath: modulo by zero\");\r\n    }\r\n\r\n    /**\r\n     * @dev Returns the remainder of dividing two unsigned integers. (unsigned integer modulo),\r\n     * Reverts with custom message when dividing by zero.\r\n     *\r\n     * Counterpart to Solidity's `%` operator. This function uses a `revert`\r\n     * opcode (which leaves remaining gas untouched) while Solidity uses an\r\n     * invalid opcode to revert (consuming all remaining gas).\r\n     *\r\n     * Requirements:\r\n     *\r\n     * - The divisor cannot be zero.\r\n     */\r\n    function mod(uint256 a, uint256 b, string memory errorMessage) internal pure returns (uint256) {\r\n        require(b != 0, errorMessage);\r\n        return a % b;\r\n    }\r\n}\r\n\r\n// File: openzeppelin-solidity/contracts/token/ERC20/SafeERC20.sol\r\n\r\n\r\n\r\npragma solidity 0.8.1;\r\n\r\n\r\n\r\n\r\n/**\r\n * @title SafeERC20\r\n * @dev Wrappers around ERC20 operations that throw on failure (when the token\r\n * contract returns false). Tokens that return no value (and instead revert or\r\n * throw on failure) are also supported, non-reverting calls are assumed to be\r\n * successful.\r\n * To use this library you can add a `using SafeERC20 for IERC20;` statement to your contract,\r\n * which allows you to call the safe operations as `token.safeTransfer(...)`, etc.\r\n */\r\nlibrary SafeERC20 {\r\n    using SafeMath for uint256;\r\n    using Address for address;\r\n\r\n    function safeTransfer(IERC20 token, address to, uint256 value) internal {\r\n        _callOptionalReturn(token, abi.encodeWithSelector(token.transfer.selector, to, value));\r\n    }\r\n\r\n    function safeTransferFrom(IERC20 token, address from, address to, uint256 value) internal {\r\n        _callOptionalReturn(token, abi.encodeWithSelector(token.transferFrom.selector, from, to, value));\r\n    }\r\n\r\n    /**\r\n     * @dev Deprecated. This function has issues similar to the ones found in\r\n     * {IERC20-approve}, and its usage is discouraged.\r\n     *\r\n     * Whenever possible, use {safeIncreaseAllowance} and\r\n     * {safeDecreaseAllowance} instead.\r\n     */\r\n    function safeApprove(IERC20 token, address spender, uint256 value) internal {\r\n        // safeApprove should only be called when setting an initial allowance,\r\n        // or when resetting it to zero. To increase and decrease it, use\r\n        // 'safeIncreaseAllowance' and 'safeDecreaseAllowance'\r\n        // solhint-disable-next-line max-line-length\r\n        require((value == 0) || (token.allowance(address(this), spender) == 0),\r\n            \"SafeERC20: approve from non-zero to non-zero allowance\"\r\n        );\r\n        _callOptionalReturn(token, abi.encodeWithSelector(token.approve.selector, spender, value));\r\n    }\r\n\r\n    function safeIncreaseAllowance(IERC20 token, address spender, uint256 value) internal {\r\n        uint256 newAllowance = token.allowance(address(this), spender).add(value);\r\n        _callOptionalReturn(token, abi.encodeWithSelector(token.approve.selector, spender, newAllowance));\r\n    }\r\n\r\n    function safeDecreaseAllowance(IERC20 token, address spender, uint256 value) internal {\r\n        uint256 newAllowance = token.allowance(address(this), spender).sub(value, \"SafeERC20: decreased allowance below zero\");\r\n        _callOptionalReturn(token, abi.encodeWithSelector(token.approve.selector, spender, newAllowance));\r\n    }\r\n\r\n    /**\r\n     * @dev Imitates a Solidity high-level call (i.e. a regular function call to a contract), relaxing the requirement\r\n     * on the return value: the return value is optional (but if data is returned, it must not be false).\r\n     * @param token The token targeted by the call.\r\n     * @param data The call data (encoded using abi.encode or one of its variants).\r\n     */\r\n    function _callOptionalReturn(IERC20 token, bytes memory data) private {\r\n        // We need to perform a low level call here, to bypass Solidity's return data size checking mechanism, since\r\n        // we're implementing it ourselves. We use {Address.functionCall} to perform this call, which verifies that\r\n        // the target address contains contract code and also asserts for success in the low-level call.\r\n\r\n        bytes memory returndata = address(token).functionCall(data, \"SafeERC20: low-level call failed\");\r\n        if (returndata.length > 0) { // Return data is optional\r\n            // solhint-disable-next-line max-line-length\r\n            require(abi.decode(returndata, (bool)), \"SafeERC20: ERC20 operation did not succeed\");\r\n        }\r\n    }\r\n}\r\n\r\n// File: original_contracts/routers/IRouter.sol\r\n\r\npragma solidity 0.8.1;\r\n\r\ninterface IRouter {\r\n\r\n    /**\r\n    * @dev Certain routers/exchanges needs to be initialized.\r\n    * This method will be called from Augustus\r\n    */\r\n    function initialize(bytes calldata data) external;\r\n\r\n    /**\r\n    * @dev Returns unique identifier for the router\r\n    */\r\n    function getKey() external pure returns(bytes32);\r\n\r\n    event Swapped(\r\n        bytes16 uuid,\r\n        address initiator,\r\n        address indexed beneficiary,\r\n        address indexed srcToken,\r\n        address indexed destToken,\r\n        uint256 srcAmount,\r\n        uint256 receivedAmount,\r\n        uint256 expectedAmount\r\n    );\r\n\r\n    event Bought(\r\n        bytes16 uuid,\r\n        address initiator,\r\n        address indexed beneficiary,\r\n        address indexed srcToken,\r\n        address indexed destToken,\r\n        uint256 srcAmount,\r\n        uint256 receivedAmount\r\n    );\r\n\r\n    event FeeTaken(\r\n        uint256 fee,\r\n        uint256 partnerShare,\r\n        uint256 paraswapShare\r\n    );\r\n}\r\n\r\n// File: original_contracts/ITokenTransferProxy.sol\r\n\r\npragma solidity 0.8.1;\r\n\r\n\r\ninterface ITokenTransferProxy {\r\n\r\n    function transferFrom(\r\n        address token,\r\n        address from,\r\n        address to,\r\n        uint256 amount\r\n    )\r\n        external;\r\n}\r\n\r\n// File: original_contracts/lib/Utils.sol\r\n\r\npragma solidity 0.8.1;\r\npragma experimental ABIEncoderV2;\r\n\r\n\r\n\r\n\r\n\r\ninterface IERC20Permit {\r\n    function permit(address owner, address spender, uint256 amount, uint256 deadline, uint8 v, bytes32 r, bytes32 s) external;\r\n}\r\n\r\nlibrary Utils {\r\n    using SafeMath for uint256;\r\n    using SafeERC20 for IERC20;\r\n\r\n    address constant ETH_ADDRESS = address(\r\n        0xEeeeeEeeeEeEeeEeEeEeeEEEeeeeEeeeeeeeEEeE\r\n    );\r\n    \r\n    uint256 constant MAX_UINT = type(uint256).max;\r\n\r\n    /**\r\n   * @param fromToken Address of the source token\r\n   * @param fromAmount Amount of source tokens to be swapped\r\n   * @param toAmount Minimum destination token amount expected out of this swap\r\n   * @param expectedAmount Expected amount of destination tokens without slippage\r\n   * @param beneficiary Beneficiary address\r\n   * 0 then 100% will be transferred to beneficiary. Pass 10000 for 100%\r\n   * @param path Route to be taken for this swap to take place\r\n\r\n   */\r\n    struct SellData {\r\n        address fromToken;\r\n        uint256 fromAmount;\r\n        uint256 toAmount;\r\n        uint256 expectedAmount;\r\n        address payable beneficiary;\r\n        Utils.Path[] path;\r\n        address payable partner;\r\n        uint256 feePercent;\r\n        bytes permit;\r\n        uint256 deadline;\r\n        bytes16 uuid;\r\n    }\r\n\r\n    struct MegaSwapSellData {\r\n        address fromToken;\r\n        uint256 fromAmount;\r\n        uint256 toAmount;\r\n        uint256 expectedAmount;\r\n        address payable beneficiary;\r\n        Utils.MegaSwapPath[] path;\r\n        address payable partner;\r\n        uint256 feePercent;\r\n        bytes permit;\r\n        uint256 deadline;\r\n        bytes16 uuid;\r\n    }\r\n\r\n    struct SimpleData {\r\n        address fromToken;\r\n        address toToken;\r\n        uint256 fromAmount;\r\n        uint256 toAmount;\r\n        uint256 expectedAmount;\r\n        address[] callees;\r\n        bytes exchangeData;\r\n        uint256[] startIndexes;\r\n        uint256[] values;\r\n        address payable beneficiary;\r\n        address payable partner;\r\n        uint256 feePercent;\r\n        bytes permit;\r\n        uint256 deadline;\r\n        bytes16 uuid;\r\n    }\r\n\r\n    struct Adapter {\r\n        address payable adapter;\r\n        uint256 percent;\r\n        uint256 networkFee;\r\n        Route[] route;\r\n    }\r\n\r\n    struct Route {\r\n        uint256 index;//Adapter at which index needs to be used\r\n        address targetExchange;\r\n        uint percent;\r\n        bytes payload;\r\n        uint256 networkFee;//Network fee is associated with 0xv3 trades\r\n    }\r\n\r\n    struct MegaSwapPath {\r\n        uint256 fromAmountPercent;\r\n        Path[] path;\r\n    }\r\n\r\n    struct Path {\r\n        address to;\r\n        uint256 totalNetworkFee;//Network fee is associated with 0xv3 trades\r\n        Adapter[] adapters;\r\n    }\r\n\r\n    function ethAddress() internal pure returns (address) {return ETH_ADDRESS;}\r\n\r\n    function maxUint() internal pure returns (uint256) {return MAX_UINT;}\r\n\r\n    function approve(\r\n        address addressToApprove,\r\n        address token,\r\n        uint256 amount\r\n    ) internal {\r\n        if (token != ETH_ADDRESS) {\r\n            IERC20 _token = IERC20(token);\r\n\r\n            uint allowance = _token.allowance(address(this), addressToApprove);\r\n\r\n            if (allowance < amount) {\r\n                _token.safeApprove(addressToApprove, 0);\r\n                _token.safeIncreaseAllowance(addressToApprove, MAX_UINT);\r\n            }\r\n        }\r\n    }\r\n\r\n    function transferTokens(\r\n        address token,\r\n        address payable destination,\r\n        uint256 amount\r\n    )\r\n    internal\r\n    {\r\n        if (amount > 0) {\r\n            if (token == ETH_ADDRESS) {\r\n                (bool result, ) = destination.call{value: amount, gas: 10000}(\"\");\r\n                require(result, \"Failed to transfer Ether\");\r\n            }\r\n            else {\r\n                IERC20(token).safeTransfer(destination, amount);\r\n            }\r\n        }\r\n\r\n    }\r\n\r\n    function tokenBalance(\r\n        address token,\r\n        address account\r\n    )\r\n    internal\r\n    view\r\n    returns (uint256)\r\n    {\r\n        if (token == ETH_ADDRESS) {\r\n            return account.balance;\r\n        } else {\r\n            return IERC20(token).balanceOf(account);\r\n        }\r\n    }\r\n\r\n    function permit(\r\n        address token,\r\n        bytes memory permit\r\n    )\r\n        internal\r\n    {\r\n        if (permit.length == 32 * 7) {\r\n            (bool success,) = token.call(abi.encodePacked(IERC20Permit.permit.selector, permit));\r\n            require(success, \"Permit failed\");\r\n        }\r\n    }\r\n\r\n}\r\n\r\n// File: original_contracts/adapters/IAdapter.sol\r\n\r\npragma solidity 0.8.1;\r\n\r\n\r\n\r\ninterface IAdapter {\r\n\r\n    /**\r\n    * @dev Certain adapters needs to be initialized.\r\n    * This method will be called from Augustus\r\n    */\r\n    function initialize(bytes calldata data) external;\r\n\r\n    /**\r\n   * @dev The function which performs the swap on an exchange.\r\n   * @param fromToken Address of the source token\r\n   * @param toToken Address of the destination token\r\n   * @param fromAmount Amount of source tokens to be swapped\r\n   * @param networkFee Network fee to be used in this router\r\n   * @param route Route to be followed\r\n   */\r\n    function swap(\r\n        IERC20 fromToken,\r\n        IERC20 toToken,\r\n        uint256 fromAmount,\r\n        uint256 networkFee,\r\n        Utils.Route[] calldata route\r\n    )\r\n        external\r\n        payable;\r\n}\r\n\r\n// File: openzeppelin-solidity/contracts/access/Ownable.sol\r\n\r\n\r\n\r\npragma solidity 0.8.1;\r\n\r\n/**\r\n * @dev Contract module which provides a basic access control mechanism, where\r\n * there is an account (an owner) that can be granted exclusive access to\r\n * specific functions.\r\n *\r\n * By default, the owner account will be the one that deploys the contract. This\r\n * can later be changed with {transferOwnership}.\r\n *\r\n * This module is used through inheritance. It will make available the modifier\r\n * `onlyOwner`, which can be applied to your functions to restrict their use to\r\n * the owner.\r\n */\r\nabstract contract Ownable is Context {\r\n    address private _owner;\r\n\r\n    event OwnershipTransferred(address indexed previousOwner, address indexed newOwner);\r\n\r\n    /**\r\n     * @dev Initializes the contract setting the deployer as the initial owner.\r\n     */\r\n    constructor () internal {\r\n        address msgSender = _msgSender();\r\n        _owner = msgSender;\r\n        emit OwnershipTransferred(address(0), msgSender);\r\n    }\r\n\r\n    /**\r\n     * @dev Returns the address of the current owner.\r\n     */\r\n    function owner() public view returns (address) {\r\n        return _owner;\r\n    }\r\n\r\n    /**\r\n     * @dev Throws if called by any account other than the owner.\r\n     */\r\n    modifier onlyOwner() {\r\n        require(_owner == _msgSender(), \"Ownable: caller is not the owner\");\r\n        _;\r\n    }\r\n\r\n    /**\r\n     * @dev Leaves the contract without owner. It will not be possible to call\r\n     * `onlyOwner` functions anymore. Can only be called by the current owner.\r\n     *\r\n     * NOTE: Renouncing ownership will leave the contract without an owner,\r\n     * thereby removing any functionality that is only available to the owner.\r\n     */\r\n    function renounceOwnership() public virtual onlyOwner {\r\n        emit OwnershipTransferred(_owner, address(0));\r\n        _owner = address(0);\r\n    }\r\n\r\n    /**\r\n     * @dev Transfers ownership of the contract to a new account (`newOwner`).\r\n     * Can only be called by the current owner.\r\n     */\r\n    function transferOwnership(address newOwner) public virtual onlyOwner {\r\n        require(newOwner != address(0), \"Ownable: new owner is the zero address\");\r\n        emit OwnershipTransferred(_owner, newOwner);\r\n        _owner = newOwner;\r\n    }\r\n}\r\n\r\n// File: original_contracts/TokenTransferProxy.sol\r\n\r\npragma solidity 0.8.1;\r\n\r\n\r\n\r\n\r\n\r\n\r\n\r\n/**\r\n* @dev Allows owner of the contract to transfer tokens on behalf of user.\r\n* User will need to approve this contract to spend tokens on his/her behalf\r\n* on Paraswap platform\r\n*/\r\ncontract TokenTransferProxy is Ownable, ITokenTransferProxy {\r\n    using SafeERC20 for IERC20;\r\n    using Address for address;\r\n\r\n    /**\r\n    * @dev Allows owner of the contract to transfer tokens on user's behalf\r\n    * @dev Swapper contract will be the owner of this contract\r\n    * @param token Address of the token\r\n    * @param from Address from which tokens will be transferred\r\n    * @param to Receipent address of the tokens\r\n    * @param amount Amount of tokens to transfer\r\n    */\r\n    function transferFrom(\r\n        address token,\r\n        address from,\r\n        address to,\r\n        uint256 amount\r\n    )\r\n        external\r\n        override\r\n        onlyOwner\r\n    {   \r\n        require(\r\n            from == tx.origin ||\r\n            from.isContract(),\r\n            \"Invalid from address\"\r\n        );\r\n        \r\n        IERC20(token).safeTransferFrom(from, to, amount);\r\n    }\r\n}\r\n\r\n// File: original_contracts/AugustusStorage.sol\r\n\r\npragma solidity 0.8.1;\r\n\r\n\r\ncontract AugustusStorage {\r\n\r\n    struct FeeStructure {\r\n        uint256 partnerShare;\r\n        bool noPositiveSlippage;\r\n        bool positiveSlippageToUser;\r\n        uint16 feePercent;\r\n        string partnerId;\r\n        bytes data;\r\n    }\r\n\r\n    ITokenTransferProxy internal tokenTransferProxy;\r\n    address payable internal feeWallet;\r\n    \r\n    mapping(address => FeeStructure) internal registeredPartners;\r\n\r\n    mapping (bytes4 => address) internal selectorVsRouter;\r\n    mapping (bytes32 => bool) internal adapterInitialized;\r\n    mapping (bytes32 => bytes) internal adapterVsData;\r\n\r\n    mapping (bytes32 => bytes) internal routerData;\r\n    mapping (bytes32 => bool) internal routerInitialized;\r\n\r\n\r\n    bytes32 public constant WHITELISTED_ROLE = keccak256(\"WHITELISTED_ROLE\");\r\n\r\n    bytes32 public constant ROUTER_ROLE = keccak256(\"ROUTER_ROLE\");\r\n\r\n}\r\n\r\n// File: original_contracts/AugustusSwapper.sol\r\n\r\npragma solidity 0.8.1;\r\n\r\n\r\n\r\n\r\n\r\n\r\n\r\n\r\n\r\n\r\ncontract AugustusSwapper is AugustusStorage, AccessControl {\r\n    using SafeMath for uint256;\r\n    using SafeERC20 for IERC20;\r\n\r\n    event AdapterInitialized(address indexed adapter);\r\n\r\n    event RouterInitialized(address indexed router);\r\n\r\n    /**\r\n     * @dev Throws if called by any account other than the admin.\r\n     */\r\n    modifier onlyAdmin() {\r\n        require(hasRole(DEFAULT_ADMIN_ROLE, msg.sender), \"caller is not the admin\");\r\n        _;\r\n    }\r\n\r\n    constructor(\r\n        address payable _feeWallet\r\n    ) public {\r\n        // address payable _feeWallet = payable(address(0x0505c09E927d280845f83c7CC62B0434E653BDe7));\r\n        TokenTransferProxy lTokenTransferProxy = new TokenTransferProxy();\r\n        tokenTransferProxy = ITokenTransferProxy(lTokenTransferProxy);\r\n        feeWallet = _feeWallet;\r\n        _setupRole(DEFAULT_ADMIN_ROLE, msg.sender);\r\n    }\r\n\r\n    \r\n    \r\n    receive () payable external {\r\n\r\n    }\r\n\r\n    fallback() external payable {\r\n        bytes4 selector = msg.sig;\r\n        //Figure out the router contract for the given function\r\n        address implementation = getImplementation(selector);\r\n        if (implementation == address(0)) {\r\n            _revertWithData(\r\n                abi.encodeWithSelector(\r\n                    bytes4(keccak256(\"NotImplementedError(bytes4)\")),\r\n                    selector\r\n                )\r\n            );\r\n        }\r\n\r\n        //Delegate call to the router\r\n        (bool success, bytes memory resultData) = implementation.delegatecall(msg.data);\r\n        if (!success) {\r\n            _revertWithData(resultData);\r\n        }\r\n\r\n        _returnWithData(resultData);\r\n    }\r\n\r\n    function initializeAdapter(address adapter, bytes calldata data) external onlyAdmin {\r\n\r\n        require(\r\n            hasRole(WHITELISTED_ROLE, adapter),\r\n            \"Exchange not whitelisted\"\r\n        );\r\n        (bool success,) = adapter.delegatecall(abi.encodeWithSelector(IAdapter.initialize.selector, data));\r\n        require(success, \"Failed to initialize adapter\");\r\n        emit AdapterInitialized(adapter);\r\n    }\r\n\r\n    function initializeRouter(address router, bytes calldata data) external onlyAdmin {\r\n\r\n        require(\r\n            hasRole(ROUTER_ROLE, router),\r\n            \"Router not whitelisted\"\r\n        );\r\n        (bool success,) = router.delegatecall(abi.encodeWithSelector(IRouter.initialize.selector, data));\r\n        require(success, \"Failed to initialize router\");\r\n        emit RouterInitialized(router);\r\n    } \r\n\r\n    \r\n    function getImplementation(bytes4 selector) public view returns(address) {\r\n        return selectorVsRouter[selector];\r\n    }\r\n\r\n    function getVersion() external pure returns(string memory) {\r\n        return \"5.0.0\";\r\n    }\r\n\r\n    function getPartnerFeeStructure(address partner) public view returns (FeeStructure memory) {\r\n        return registeredPartners[partner];\r\n    }\r\n\r\n    function getFeeWallet() external view returns(address) {\r\n        return feeWallet;\r\n    }\r\n\r\n    function setFeeWallet(address payable _feeWallet) external onlyAdmin {\r\n        require(_feeWallet != address(0), \"Invalid address\");\r\n        feeWallet = _feeWallet;\r\n    }\r\n\r\n    function registerPartner(\r\n        address partner,\r\n        uint256 _partnerShare,\r\n        bool _noPositiveSlippage,\r\n        bool _positiveSlippageToUser,\r\n        uint16 _feePercent,\r\n        string calldata partnerId,\r\n        bytes calldata _data\r\n    )\r\n        external\r\n        onlyAdmin\r\n    {   \r\n        require(partner != address(0), \"Invalid partner\");\r\n        FeeStructure storage feeStructure = registeredPartners[partner];\r\n        require(feeStructure.partnerShare == 0, \"Already registered\");\r\n        require(_partnerShare > 0 && _partnerShare < 10000, \"Invalid values\");\r\n        require(_feePercent <= 10000, \"Invalid values\");\r\n\r\n        feeStructure.partnerShare = _partnerShare;\r\n        feeStructure.noPositiveSlippage = _noPositiveSlippage;\r\n        feeStructure.positiveSlippageToUser = _positiveSlippageToUser;\r\n        feeStructure.partnerId = partnerId;\r\n        feeStructure.feePercent = _feePercent;\r\n        feeStructure.data = _data;\r\n    }\r\n\r\n    function setImplementation(bytes4 selector, address implementation) external onlyAdmin {\r\n        require(\r\n            hasRole(ROUTER_ROLE, implementation),\r\n            \"Router is not whitelisted\"\r\n        );\r\n        selectorVsRouter[selector] = implementation;\r\n    }\r\n\r\n    /**\r\n    * @dev Allows admin of the contract to transfer any tokens which are assigned to the contract\r\n    * This method is for safety if by any chance tokens or ETHs are assigned to the contract by mistake\r\n    * @dev token Address of the token to be transferred\r\n    * @dev destination Recepient of the token\r\n    * @dev amount Amount of tokens to be transferred\r\n    */\r\n    function transferTokens(\r\n        address token,\r\n        address payable destination,\r\n        uint256 amount\r\n    )\r\n        external\r\n        onlyAdmin\r\n    {\r\n        if (amount > 0) {\r\n            if (token == address(0xEeeeeEeeeEeEeeEeEeEeeEEEeeeeEeeeeeeeEEeE)) {\r\n                (bool result, ) = destination.call{value: amount, gas: 10000}(\"\");\r\n                require(result, \"Failed to transfer Ether\");\r\n            }\r\n            else {\r\n                IERC20(token).safeTransfer(destination, amount);\r\n            }\r\n        }\r\n    }\r\n\r\n      function isAdapterInitialized(bytes32 key) public view returns(bool) {\r\n        return adapterInitialized[key];\r\n    }\r\n\r\n    function getAdapterData(bytes32 key) public view returns(bytes memory) {\r\n        return adapterVsData[key];\r\n    }\r\n\r\n    function isRouterInitialized(bytes32 key) public view returns (bool) {\r\n        return routerInitialized[key];\r\n    }\r\n\r\n    function getRouterData(bytes32 key) public view returns (bytes memory) {\r\n        return routerData[key];\r\n    }\r\n\r\n    function getTokenTransferProxy() public view returns (address) {\r\n        return address(tokenTransferProxy);\r\n    }\r\n\r\n    function _revertWithData(bytes memory data) private pure {\r\n        assembly { revert(add(data, 32), mload(data)) }\r\n    }\r\n\r\n    function _returnWithData(bytes memory data) private pure {\r\n        assembly { return(add(data, 32), mload(data)) }\r\n    }\r\n\r\n}",
  "sourcePath": "C:\\Users\\23396\\multiPath\\contracts\\AugustusSwapper.sol",
  "compiler": {
    "name": "solc",
    "version": "0.8.1+commit.df193b15.Emscripten.clang"
  },
  "schemaVersion": "3.4.7",
  "updatedAt": "2022-07-04T14:21:43.314Z",
  "devdoc": {
    "kind": "dev",
    "methods": {
      "getRoleAdmin(bytes32)": {
        "details": "Returns the admin role that controls `role`. See {grantRole} and {revokeRole}. To change a role's admin, use {_setRoleAdmin}."
      },
      "getRoleMember(bytes32,uint256)": {
        "details": "Returns one of the accounts that have `role`. `index` must be a value between 0 and {getRoleMemberCount}, non-inclusive. Role bearers are not sorted in any particular way, and their ordering may change at any point. WARNING: When using {getRoleMember} and {getRoleMemberCount}, make sure you perform all queries on the same block. See the following https://forum.openzeppelin.com/t/iterating-over-elements-on-enumerableset-in-openzeppelin-contracts/2296[forum post] for more information."
      },
      "getRoleMemberCount(bytes32)": {
        "details": "Returns the number of accounts that have `role`. Can be used together with {getRoleMember} to enumerate all bearers of a role."
      },
      "grantRole(bytes32,address)": {
        "details": "Grants `role` to `account`. If `account` had not been already granted `role`, emits a {RoleGranted} event. Requirements: - the caller must have ``role``'s admin role."
      },
      "hasRole(bytes32,address)": {
        "details": "Returns `true` if `account` has been granted `role`."
      },
      "renounceRole(bytes32,address)": {
        "details": "Revokes `role` from the calling account. Roles are often managed via {grantRole} and {revokeRole}: this function's purpose is to provide a mechanism for accounts to lose their privileges if they are compromised (such as when a trusted device is misplaced). If the calling account had been granted `role`, emits a {RoleRevoked} event. Requirements: - the caller must be `account`."
      },
      "revokeRole(bytes32,address)": {
        "details": "Revokes `role` from `account`. If `account` had been granted `role`, emits a {RoleRevoked} event. Requirements: - the caller must have ``role``'s admin role."
      },
      "transferTokens(address,address,uint256)": {
        "details": "Allows admin of the contract to transfer any tokens which are assigned to the contract This method is for safety if by any chance tokens or ETHs are assigned to the contract by mistaketoken Address of the token to be transferreddestination Recepient of the tokenamount Amount of tokens to be transferred"
      }
    },
    "version": 1
  },
  "userdoc": {
    "kind": "user",
    "methods": {},
    "version": 1
  }
}