{
  "contractName": "FeeModel",
  "abi": [
    {
      "inputs": [
        {
          "internalType": "uint256",
          "name": "_partnerSharePercent",
          "type": "uint256"
        },
        {
          "internalType": "uint256",
          "name": "_maxFeePercent",
          "type": "uint256"
        },
        {
          "internalType": "contract IFeeClaimer",
          "name": "_feeClaimer",
          "type": "address"
        }
      ],
      "stateMutability": "nonpayable",
      "type": "constructor"
    },
    {
      "inputs": [],
      "name": "ROUTER_ROLE",
      "outputs": [
        {
          "internalType": "bytes32",
          "name": "",
          "type": "bytes32"
        }
      ],
      "stateMutability": "view",
      "type": "function"
    },
    {
      "inputs": [],
      "name": "WHITELISTED_ROLE",
      "outputs": [
        {
          "internalType": "bytes32",
          "name": "",
          "type": "bytes32"
        }
      ],
      "stateMutability": "view",
      "type": "function"
    },
    {
      "inputs": [],
      "name": "feeClaimer",
      "outputs": [
        {
          "internalType": "contract IFeeClaimer",
          "name": "",
          "type": "address"
        }
      ],
      "stateMutability": "view",
      "type": "function"
    },
    {
      "inputs": [],
      "name": "maxFeePercent",
      "outputs": [
        {
          "internalType": "uint256",
          "name": "",
          "type": "uint256"
        }
      ],
      "stateMutability": "view",
      "type": "function"
    },
    {
      "inputs": [],
      "name": "partnerSharePercent",
      "outputs": [
        {
          "internalType": "uint256",
          "name": "",
          "type": "uint256"
        }
      ],
      "stateMutability": "view",
      "type": "function"
    }
  ],
  "bytecode": "0x60e060405234801561001057600080fd5b50604051610459380380610459833981810160405281019061003291906100ab565b82608081815250508160a081815250508073ffffffffffffffffffffffffffffffffffffffff1660c08173ffffffffffffffffffffffffffffffffffffffff1660601b81525050505050610176565b60008151905061009081610148565b92915050565b6000815190506100a58161015f565b92915050565b6000806000606084860312156100c057600080fd5b60006100ce86828701610096565b93505060206100df86828701610096565b92505060406100f086828701610081565b9150509250925092565b60006101058261011e565b9050919050565b6000610117826100fa565b9050919050565b600073ffffffffffffffffffffffffffffffffffffffff82169050919050565b6000819050919050565b6101518161010c565b811461015c57600080fd5b50565b6101688161013e565b811461017357600080fd5b50565b60805160a05160c05160601c6102b26101a76000396000610160015260006101840152600060f401526102b26000f3fe608060405234801561001057600080fd5b50600436106100575760003560e01c806312070a411461005c57806330d643b51461007a5780637a3226ec1461009857806381cbd3ea146100b6578063d830a05b146100d4575b600080fd5b6100646100f2565b6040516100719190610209565b60405180910390f35b610082610116565b60405161008f91906101d3565b60405180910390f35b6100a061013a565b6040516100ad91906101d3565b60405180910390f35b6100be61015e565b6040516100cb91906101ee565b60405180910390f35b6100dc610182565b6040516100e99190610209565b60405180910390f35b7f000000000000000000000000000000000000000000000000000000000000000081565b7f7a05a596cb0ce7fdea8a1e1ec73be300bdb35097c944ce1897202f7a13122eb281565b7f8429d542926e6695b59ac6fbdcd9b37e8b1aeb757afab06ab60b1bb5878c3b4981565b7f000000000000000000000000000000000000000000000000000000000000000081565b7f000000000000000000000000000000000000000000000000000000000000000081565b6101af81610224565b82525050565b6101be81610258565b82525050565b6101cd8161024e565b82525050565b60006020820190506101e860008301846101a6565b92915050565b600060208201905061020360008301846101b5565b92915050565b600060208201905061021e60008301846101c4565b92915050565b6000819050919050565b600073ffffffffffffffffffffffffffffffffffffffff82169050919050565b6000819050919050565b60006102638261026a565b9050919050565b60006102758261022e565b905091905056fea26469706673582212207ea8513dd1a97ab7cdc6fb4cba5e58691fea338eec67d6ac5ff612570abfc52a64736f6c63430008010033",
  "immutableReferences": {
    "4942": [
      {
        "length": 32,
        "start": 244
      }
    ],
    "4944": [
      {
        "length": 32,
        "start": 388
      }
    ],
    "4947": [
      {
        "length": 32,
        "start": 352
      }
    ]
  },
  "source": "// SPDX-License-Identifier: ISC\r\n\r\npragma solidity 0.8.1;\r\n\r\nimport \"@openzeppelin/contracts/utils/math/SafeMath.sol\";\r\n\r\nimport \"../AugustusStorage.sol\";\r\nimport \"../lib/Utils.sol\";\r\nimport \"./IFeeClaimer.sol\";\r\n// helpers\r\nimport { IERC20 } from \"@openzeppelin/contracts/token/ERC20/IERC20.sol\";\r\n\r\ncontract FeeModel is AugustusStorage {\r\n    using SafeMath for uint256;\r\n\r\n    uint256 public immutable partnerSharePercent;\r\n    uint256 public immutable maxFeePercent;\r\n    IFeeClaimer public immutable feeClaimer;\r\n\r\n    constructor(\r\n        uint256 _partnerSharePercent,\r\n        uint256 _maxFeePercent,\r\n        IFeeClaimer _feeClaimer\r\n    ) public {\r\n        partnerSharePercent = _partnerSharePercent;\r\n        maxFeePercent = _maxFeePercent;\r\n        feeClaimer = _feeClaimer;\r\n    }\r\n\r\n    // feePercent is a packed structure.\r\n    // Bits 255-248 = 8-bit version field\r\n    //\r\n    // Version 0\r\n    // =========\r\n    // Entire structure is interpreted as the fee percent in basis points.\r\n    // If set to 0 then partner will not receive any fees.\r\n    //\r\n    // Version 1\r\n    // =========\r\n    // Bits 13-0 = Fee percent in basis points\r\n    // Bit 14 = positiveSlippageToUser (positive slippage to partner if not set)\r\n    // Bit 15 = if set, take fee from fromToken, toToken otherwise\r\n    // Bit 16 = if set, do fee distribution as per referral program\r\n\r\n    // Used only for SELL (where needs to be done before swap or at the end if not transferring)\r\n    function takeFromTokenFee(\r\n        address fromToken,\r\n        uint256 fromAmount,\r\n        address payable partner,\r\n        uint256 feePercent\r\n    ) internal returns (uint256 newFromAmount) {\r\n        uint256 fixedFeeBps = _getFixedFeeBps(partner, feePercent);\r\n        if (fixedFeeBps == 0) return fromAmount;\r\n        (uint256 partnerShare, uint256 paraswapShare) = _calcFixedFees(fromAmount, fixedFeeBps);\r\n        return _distributeFees(fromAmount, fromToken, partner, partnerShare, paraswapShare);\r\n    }\r\n\r\n    // Used only for SELL (where can be done after swap and need to transfer)\r\n    function takeFromTokenFeeAndTransfer(\r\n        address fromToken,\r\n        uint256 fromAmount,\r\n        uint256 remainingAmount,\r\n        address payable partner,\r\n        uint256 feePercent\r\n    ) internal {\r\n        uint256 fixedFeeBps = _getFixedFeeBps(partner, feePercent);\r\n        if (fixedFeeBps != 0) {\r\n            (uint256 partnerShare, uint256 paraswapShare) = _calcFixedFees(fromAmount, fixedFeeBps);\r\n            remainingAmount = _distributeFees(remainingAmount, fromToken, partner, partnerShare, paraswapShare);\r\n        }\r\n        Utils.transferTokens(fromToken, payable(msg.sender), remainingAmount);\r\n    }\r\n\r\n    // Used only for BUY\r\n    function takeFromTokenFeeSlippageAndTransfer(\r\n        address fromToken,\r\n        uint256 fromAmount,\r\n        uint256 expectedAmount,\r\n        uint256 remainingAmount,\r\n        address payable partner,\r\n        uint256 feePercent\r\n    ) internal {\r\n        uint256 fixedFeeBps = _getFixedFeeBps(partner, feePercent);\r\n        uint256 slippage = _calcSlippage(fixedFeeBps, expectedAmount, fromAmount.sub(remainingAmount));\r\n        uint256 partnerShare;\r\n        uint256 paraswapShare;\r\n        if (fixedFeeBps != 0) {\r\n            (partnerShare, paraswapShare) = _calcFixedFees(expectedAmount, fixedFeeBps);\r\n        }\r\n        if (slippage != 0) {\r\n            (uint256 partnerShare2, uint256 paraswapShare2) = _calcSlippageFees(slippage, partner, feePercent);\r\n            partnerShare = partnerShare.add(partnerShare2);\r\n            paraswapShare = paraswapShare.add(paraswapShare2);\r\n        }\r\n        Utils.transferTokens(\r\n            fromToken,\r\n            payable(msg.sender),\r\n            _distributeFees(remainingAmount, fromToken, partner, partnerShare, paraswapShare)\r\n        );\r\n    }\r\n\r\n    // Used only for SELL\r\n    function takeToTokenFeeSlippageAndTransfer(\r\n        address toToken,\r\n        uint256 expectedAmount,\r\n        uint256 receivedAmount,\r\n        address payable beneficiary,\r\n        address payable partner,\r\n        uint256 feePercent\r\n    ) internal {\r\n        uint256 fixedFeeBps = _getFixedFeeBps(partner, feePercent);\r\n        uint256 slippage = _calcSlippage(fixedFeeBps, receivedAmount, expectedAmount);\r\n        uint256 partnerShare;\r\n        uint256 paraswapShare;\r\n        if (fixedFeeBps != 0) {\r\n            (partnerShare, paraswapShare) = _calcFixedFees(\r\n                slippage != 0 ? expectedAmount : receivedAmount,\r\n                fixedFeeBps\r\n            );\r\n        }\r\n        if (slippage != 0) {\r\n            (uint256 partnerShare2, uint256 paraswapShare2) = _calcSlippageFees(slippage, partner, feePercent);\r\n            partnerShare = partnerShare.add(partnerShare2);\r\n            paraswapShare = paraswapShare.add(paraswapShare2);\r\n        }\r\n        Utils.transferTokens(\r\n            toToken,\r\n            beneficiary,\r\n            _distributeFees(receivedAmount, toToken, partner, partnerShare, paraswapShare)\r\n        );\r\n    }\r\n\r\n    // Used only for BUY\r\n    function takeToTokenFeeAndTransfer(\r\n        address toToken,\r\n        uint256 receivedAmount,\r\n        address payable beneficiary,\r\n        address payable partner,\r\n        uint256 feePercent\r\n    ) internal {\r\n        uint256 fixedFeeBps = _getFixedFeeBps(partner, feePercent);\r\n        if (fixedFeeBps != 0) {\r\n            (uint256 partnerShare, uint256 paraswapShare) = _calcFixedFees(receivedAmount, fixedFeeBps);\r\n            receivedAmount = _distributeFees(receivedAmount, toToken, partner, partnerShare, paraswapShare);\r\n        }\r\n        Utils.transferTokens(toToken, beneficiary, receivedAmount);\r\n    }\r\n\r\n    function _getFixedFeeBps(address partner, uint256 feePercent) private view returns (uint256 fixedFeeBps) {\r\n        if (partner == address(0)) return 0;\r\n        uint256 version = feePercent >> 248;\r\n        if (version == 0) {\r\n            fixedFeeBps = feePercent;\r\n        } else if ((feePercent & (1 << 16)) != 0) {\r\n            // Referrer program only has slippage fees\r\n            return 0;\r\n        } else {\r\n            fixedFeeBps = feePercent & 0x3FFF;\r\n        }\r\n        return fixedFeeBps > maxFeePercent ? maxFeePercent : fixedFeeBps;\r\n    }\r\n\r\n    function _calcSlippage(\r\n        uint256 fixedFeeBps,\r\n        uint256 positiveAmount,\r\n        uint256 negativeAmount\r\n    ) private pure returns (uint256 slippage) {\r\n        return (fixedFeeBps <= 50 && positiveAmount > negativeAmount) ? positiveAmount.sub(negativeAmount) : 0;\r\n    }\r\n\r\n    function _calcFixedFees(uint256 amount, uint256 fixedFeeBps)\r\n        private\r\n        view\r\n        returns (uint256 partnerShare, uint256 paraswapShare)\r\n    {\r\n        uint256 fee = amount.mul(fixedFeeBps).div(10000);\r\n        partnerShare = fee.mul(partnerSharePercent).div(10000);\r\n        paraswapShare = fee.sub(partnerShare);\r\n    }\r\n\r\n    function _calcSlippageFees(\r\n        uint256 slippage,\r\n        address partner,\r\n        uint256 feePercent\r\n    ) private pure returns (uint256 partnerShare, uint256 paraswapShare) {\r\n        paraswapShare = slippage.div(2);\r\n        if (partner != address(0)) {\r\n            uint256 version = feePercent >> 248;\r\n            if (version != 0) {\r\n                if ((feePercent & (1 << 16)) != 0) {\r\n                    uint256 feeBps = feePercent & 0x3FFF;\r\n                    partnerShare = paraswapShare.mul(feeBps > 10000 ? 10000 : feeBps).div(10000);\r\n                } else if ((feePercent & (1 << 14)) == 0) {\r\n                    partnerShare = paraswapShare;\r\n                }\r\n            }\r\n        }\r\n    }\r\n\r\n    function _distributeFees(\r\n        uint256 currentBalance,\r\n        address token,\r\n        address payable partner,\r\n        uint256 partnerShare,\r\n        uint256 paraswapShare\r\n    ) private returns (uint256 newBalance) {\r\n        uint256 totalFees = partnerShare.add(paraswapShare);\r\n        if (totalFees == 0) return currentBalance;\r\n\r\n        require(totalFees <= currentBalance, \"Insufficient balance to pay for fees\");\r\n\r\n        Utils.transferTokens(token, payable(address(feeClaimer)), totalFees);\r\n        if (partnerShare != 0) {\r\n            feeClaimer.registerFee(partner, IERC20(token), partnerShare);\r\n        }\r\n        if (paraswapShare != 0) {\r\n            feeClaimer.registerFee(feeWallet, IERC20(token), paraswapShare);\r\n        }\r\n\r\n        return currentBalance.sub(totalFees);\r\n    }\r\n\r\n    function _isTakeFeeFromSrcToken(uint256 feePercent) internal pure returns (bool) {\r\n        return feePercent >> 248 != 0 && (feePercent & (1 << 15)) != 0;\r\n    }\r\n}",
  "sourcePath": "C:\\Users\\23396\\multiPath\\contracts\\fee\\FeeModel.sol",
  "compiler": {
    "name": "solc",
    "version": "0.8.1+commit.df193b15.Emscripten.clang"
  },
  "schemaVersion": "3.4.7",
  "updatedAt": "2022-07-04T14:21:43.444Z",
  "devdoc": {
    "kind": "dev",
    "methods": {},
    "version": 1
  },
  "userdoc": {
    "kind": "user",
    "methods": {},
    "version": 1
  }
}