{
  "contractName": "MultiPath",
  "abi": [
    {
      "inputs": [
        {
          "internalType": "uint256",
          "name": "_partnerSharePercent",
          "type": "uint256"
        },
        {
          "internalType": "uint256",
          "name": "_maxFeePercent",
          "type": "uint256"
        },
        {
          "internalType": "contract IFeeClaimer",
          "name": "_feeClaimer",
          "type": "address"
        }
      ],
      "stateMutability": "nonpayable",
      "type": "constructor"
    },
    {
      "anonymous": false,
      "inputs": [
        {
          "indexed": false,
          "internalType": "bytes16",
          "name": "uuid",
          "type": "bytes16"
        },
        {
          "indexed": false,
          "internalType": "address",
          "name": "partner",
          "type": "address"
        },
        {
          "indexed": false,
          "internalType": "uint256",
          "name": "feePercent",
          "type": "uint256"
        },
        {
          "indexed": false,
          "internalType": "address",
          "name": "initiator",
          "type": "address"
        },
        {
          "indexed": true,
          "internalType": "address",
          "name": "beneficiary",
          "type": "address"
        },
        {
          "indexed": true,
          "internalType": "address",
          "name": "srcToken",
          "type": "address"
        },
        {
          "indexed": true,
          "internalType": "address",
          "name": "destToken",
          "type": "address"
        },
        {
          "indexed": false,
          "internalType": "uint256",
          "name": "srcAmount",
          "type": "uint256"
        },
        {
          "indexed": false,
          "internalType": "uint256",
          "name": "receivedAmount",
          "type": "uint256"
        },
        {
          "indexed": false,
          "internalType": "uint256",
          "name": "expectedAmount",
          "type": "uint256"
        }
      ],
      "name": "BoughtV3",
      "type": "event"
    },
    {
      "anonymous": false,
      "inputs": [
        {
          "indexed": false,
          "internalType": "bytes16",
          "name": "uuid",
          "type": "bytes16"
        },
        {
          "indexed": false,
          "internalType": "address",
          "name": "partner",
          "type": "address"
        },
        {
          "indexed": false,
          "internalType": "uint256",
          "name": "feePercent",
          "type": "uint256"
        },
        {
          "indexed": false,
          "internalType": "address",
          "name": "initiator",
          "type": "address"
        },
        {
          "indexed": true,
          "internalType": "address",
          "name": "beneficiary",
          "type": "address"
        },
        {
          "indexed": true,
          "internalType": "address",
          "name": "srcToken",
          "type": "address"
        },
        {
          "indexed": true,
          "internalType": "address",
          "name": "destToken",
          "type": "address"
        },
        {
          "indexed": false,
          "internalType": "uint256",
          "name": "srcAmount",
          "type": "uint256"
        },
        {
          "indexed": false,
          "internalType": "uint256",
          "name": "receivedAmount",
          "type": "uint256"
        },
        {
          "indexed": false,
          "internalType": "uint256",
          "name": "expectedAmount",
          "type": "uint256"
        }
      ],
      "name": "SwappedV3",
      "type": "event"
    },
    {
      "inputs": [],
      "name": "ROUTER_ROLE",
      "outputs": [
        {
          "internalType": "bytes32",
          "name": "",
          "type": "bytes32"
        }
      ],
      "stateMutability": "view",
      "type": "function"
    },
    {
      "inputs": [],
      "name": "WHITELISTED_ROLE",
      "outputs": [
        {
          "internalType": "bytes32",
          "name": "",
          "type": "bytes32"
        }
      ],
      "stateMutability": "view",
      "type": "function"
    },
    {
      "inputs": [],
      "name": "feeClaimer",
      "outputs": [
        {
          "internalType": "contract IFeeClaimer",
          "name": "",
          "type": "address"
        }
      ],
      "stateMutability": "view",
      "type": "function"
    },
    {
      "inputs": [],
      "name": "maxFeePercent",
      "outputs": [
        {
          "internalType": "uint256",
          "name": "",
          "type": "uint256"
        }
      ],
      "stateMutability": "view",
      "type": "function"
    },
    {
      "inputs": [],
      "name": "partnerSharePercent",
      "outputs": [
        {
          "internalType": "uint256",
          "name": "",
          "type": "uint256"
        }
      ],
      "stateMutability": "view",
      "type": "function"
    },
    {
      "inputs": [
        {
          "internalType": "bytes",
          "name": "",
          "type": "bytes"
        }
      ],
      "name": "initialize",
      "outputs": [],
      "stateMutability": "nonpayable",
      "type": "function"
    },
    {
      "inputs": [],
      "name": "getKey",
      "outputs": [
        {
          "internalType": "bytes32",
          "name": "",
          "type": "bytes32"
        }
      ],
      "stateMutability": "pure",
      "type": "function"
    },
    {
      "inputs": [
        {
          "components": [
            {
              "internalType": "address",
              "name": "fromToken",
              "type": "address"
            },
            {
              "internalType": "uint256",
              "name": "fromAmount",
              "type": "uint256"
            },
            {
              "internalType": "uint256",
              "name": "toAmount",
              "type": "uint256"
            },
            {
              "internalType": "uint256",
              "name": "expectedAmount",
              "type": "uint256"
            },
            {
              "internalType": "address payable",
              "name": "beneficiary",
              "type": "address"
            },
            {
              "components": [
                {
                  "internalType": "address",
                  "name": "to",
                  "type": "address"
                },
                {
                  "internalType": "uint256",
                  "name": "totalNetworkFee",
                  "type": "uint256"
                },
                {
                  "components": [
                    {
                      "internalType": "address payable",
                      "name": "adapter",
                      "type": "address"
                    },
                    {
                      "internalType": "uint256",
                      "name": "percent",
                      "type": "uint256"
                    },
                    {
                      "internalType": "uint256",
                      "name": "networkFee",
                      "type": "uint256"
                    },
                    {
                      "components": [
                        {
                          "internalType": "uint256",
                          "name": "index",
                          "type": "uint256"
                        },
                        {
                          "internalType": "address",
                          "name": "targetExchange",
                          "type": "address"
                        },
                        {
                          "internalType": "uint256",
                          "name": "percent",
                          "type": "uint256"
                        },
                        {
                          "internalType": "bytes",
                          "name": "payload",
                          "type": "bytes"
                        },
                        {
                          "internalType": "uint256",
                          "name": "networkFee",
                          "type": "uint256"
                        }
                      ],
                      "internalType": "struct Utils.Route[]",
                      "name": "route",
                      "type": "tuple[]"
                    }
                  ],
                  "internalType": "struct Utils.Adapter[]",
                  "name": "adapters",
                  "type": "tuple[]"
                }
              ],
              "internalType": "struct Utils.Path[]",
              "name": "path",
              "type": "tuple[]"
            },
            {
              "internalType": "address payable",
              "name": "partner",
              "type": "address"
            },
            {
              "internalType": "uint256",
              "name": "feePercent",
              "type": "uint256"
            },
            {
              "internalType": "bytes",
              "name": "permit",
              "type": "bytes"
            },
            {
              "internalType": "uint256",
              "name": "deadline",
              "type": "uint256"
            },
            {
              "internalType": "bytes16",
              "name": "uuid",
              "type": "bytes16"
            }
          ],
          "internalType": "struct Utils.SellData",
          "name": "data",
          "type": "tuple"
        }
      ],
      "name": "multiSwap",
      "outputs": [
        {
          "internalType": "uint256",
          "name": "",
          "type": "uint256"
        }
      ],
      "stateMutability": "payable",
      "type": "function"
    },
    {
      "inputs": [
        {
          "components": [
            {
              "internalType": "address",
              "name": "adapter",
              "type": "address"
            },
            {
              "internalType": "address",
              "name": "fromToken",
              "type": "address"
            },
            {
              "internalType": "address",
              "name": "toToken",
              "type": "address"
            },
            {
              "internalType": "uint256",
              "name": "fromAmount",
              "type": "uint256"
            },
            {
              "internalType": "uint256",
              "name": "toAmount",
              "type": "uint256"
            },
            {
              "internalType": "uint256",
              "name": "expectedAmount",
              "type": "uint256"
            },
            {
              "internalType": "address payable",
              "name": "beneficiary",
              "type": "address"
            },
            {
              "components": [
                {
                  "internalType": "uint256",
                  "name": "index",
                  "type": "uint256"
                },
                {
                  "internalType": "address",
                  "name": "targetExchange",
                  "type": "address"
                },
                {
                  "internalType": "uint256",
                  "name": "percent",
                  "type": "uint256"
                },
                {
                  "internalType": "bytes",
                  "name": "payload",
                  "type": "bytes"
                },
                {
                  "internalType": "uint256",
                  "name": "networkFee",
                  "type": "uint256"
                }
              ],
              "internalType": "struct Utils.Route[]",
              "name": "route",
              "type": "tuple[]"
            },
            {
              "internalType": "address payable",
              "name": "partner",
              "type": "address"
            },
            {
              "internalType": "uint256",
              "name": "feePercent",
              "type": "uint256"
            },
            {
              "internalType": "bytes",
              "name": "permit",
              "type": "bytes"
            },
            {
              "internalType": "uint256",
              "name": "deadline",
              "type": "uint256"
            },
            {
              "internalType": "bytes16",
              "name": "uuid",
              "type": "bytes16"
            }
          ],
          "internalType": "struct Utils.BuyData",
          "name": "data",
          "type": "tuple"
        }
      ],
      "name": "buy",
      "outputs": [
        {
          "internalType": "uint256",
          "name": "",
          "type": "uint256"
        }
      ],
      "stateMutability": "payable",
      "type": "function"
    },
    {
      "inputs": [
        {
          "components": [
            {
              "internalType": "address",
              "name": "fromToken",
              "type": "address"
            },
            {
              "internalType": "uint256",
              "name": "fromAmount",
              "type": "uint256"
            },
            {
              "internalType": "uint256",
              "name": "toAmount",
              "type": "uint256"
            },
            {
              "internalType": "uint256",
              "name": "expectedAmount",
              "type": "uint256"
            },
            {
              "internalType": "address payable",
              "name": "beneficiary",
              "type": "address"
            },
            {
              "components": [
                {
                  "internalType": "uint256",
                  "name": "fromAmountPercent",
                  "type": "uint256"
                },
                {
                  "components": [
                    {
                      "internalType": "address",
                      "name": "to",
                      "type": "address"
                    },
                    {
                      "internalType": "uint256",
                      "name": "totalNetworkFee",
                      "type": "uint256"
                    },
                    {
                      "components": [
                        {
                          "internalType": "address payable",
                          "name": "adapter",
                          "type": "address"
                        },
                        {
                          "internalType": "uint256",
                          "name": "percent",
                          "type": "uint256"
                        },
                        {
                          "internalType": "uint256",
                          "name": "networkFee",
                          "type": "uint256"
                        },
                        {
                          "components": [
                            {
                              "internalType": "uint256",
                              "name": "index",
                              "type": "uint256"
                            },
                            {
                              "internalType": "address",
                              "name": "targetExchange",
                              "type": "address"
                            },
                            {
                              "internalType": "uint256",
                              "name": "percent",
                              "type": "uint256"
                            },
                            {
                              "internalType": "bytes",
                              "name": "payload",
                              "type": "bytes"
                            },
                            {
                              "internalType": "uint256",
                              "name": "networkFee",
                              "type": "uint256"
                            }
                          ],
                          "internalType": "struct Utils.Route[]",
                          "name": "route",
                          "type": "tuple[]"
                        }
                      ],
                      "internalType": "struct Utils.Adapter[]",
                      "name": "adapters",
                      "type": "tuple[]"
                    }
                  ],
                  "internalType": "struct Utils.Path[]",
                  "name": "path",
                  "type": "tuple[]"
                }
              ],
              "internalType": "struct Utils.MegaSwapPath[]",
              "name": "path",
              "type": "tuple[]"
            },
            {
              "internalType": "address payable",
              "name": "partner",
              "type": "address"
            },
            {
              "internalType": "uint256",
              "name": "feePercent",
              "type": "uint256"
            },
            {
              "internalType": "bytes",
              "name": "permit",
              "type": "bytes"
            },
            {
              "internalType": "uint256",
              "name": "deadline",
              "type": "uint256"
            },
            {
              "internalType": "bytes16",
              "name": "uuid",
              "type": "bytes16"
            }
          ],
          "internalType": "struct Utils.MegaSwapSellData",
          "name": "data",
          "type": "tuple"
        }
      ],
      "name": "megaSwap",
      "outputs": [
        {
          "internalType": "uint256",
          "name": "",
          "type": "uint256"
        }
      ],
      "stateMutability": "payable",
      "type": "function"
    }
  ],
  "bytecode": "0x60e06040523480156200001157600080fd5b5060405162004600380380620046008339818101604052810190620000379190620000bb565b82828282608081815250508160a081815250508073ffffffffffffffffffffffffffffffffffffffff1660c08173ffffffffffffffffffffffffffffffffffffffff1660601b8152505050505050505062000197565b6000815190506200009e8162000163565b92915050565b600081519050620000b5816200017d565b92915050565b600080600060608486031215620000d157600080fd5b6000620000e186828701620000a4565b9350506020620000f486828701620000a4565b925050604062000107868287016200008d565b9150509250925092565b60006200011e8262000139565b9050919050565b6000620001328262000111565b9050919050565b600073ffffffffffffffffffffffffffffffffffffffff82169050919050565b6000819050919050565b6200016e8162000125565b81146200017a57600080fd5b50565b620001888162000159565b81146200019457600080fd5b50565b60805160a05160c05160601c61440c620001f460003960008181610ab80152818161202c0152818161205b01526120f3015260008181610e5501528181611ece0152611efb0152600081816102530152611f5e015261440c6000f3fe6080604052600436106100915760003560e01c80637a3226ec116100595780637a3226ec1461017557806381cbd3ea146101a057806382678dd6146101cb578063a94e78ef146101f6578063d830a05b1461022657610091565b806312070a411461009657806330d643b5146100c157806335326910146100ec578063439fab911461011c57806346c67b6d14610145575b600080fd5b3480156100a257600080fd5b506100ab610251565b6040516100b891906139d0565b60405180910390f35b3480156100cd57600080fd5b506100d6610275565b6040516100e39190613746565b60405180910390f35b61010660048036038101906101019190612f6e565b610299565b60405161011391906139d0565b60405180910390f35b34801561012857600080fd5b50610143600480360381019061013e9190612f29565b61057b565b005b61015f600480360381019061015a9190612faf565b6105b6565b60405161016c91906139d0565b60405180910390f35b34801561018157600080fd5b5061018a610a92565b6040516101979190613746565b60405180910390f35b3480156101ac57600080fd5b506101b5610ab6565b6040516101c291906137b3565b60405180910390f35b3480156101d757600080fd5b506101e0610ada565b6040516101ed9190613746565b60405180910390f35b610210600480360381019061020b9190612ff0565b610b06565b60405161021d91906139d0565b60405180910390f35b34801561023257600080fd5b5061023b610e53565b60405161024891906139d0565b60405180910390f35b7f000000000000000000000000000000000000000000000000000000000000000081565b7f7a05a596cb0ce7fdea8a1e1ec73be300bdb35097c944ce1897202f7a13122eb281565b60004282610160015110156102e3576040517f08c379a00000000000000000000000000000000000000000000000000000000081526004016102da90613970565b60405180910390fd5b6000826020015190506000836060015190506102fd610e77565b73ffffffffffffffffffffffffffffffffffffffff168273ffffffffffffffffffffffffffffffffffffffff1614610336576000610338565b805b3414610379576040517f08c379a0000000000000000000000000000000000000000000000000000000008152600401610370906138f0565b60405180910390fd5b60008460800151905060008073ffffffffffffffffffffffffffffffffffffffff168660c0015173ffffffffffffffffffffffffffffffffffffffff16146103c5578560c001516103c7565b335b905060008660400151905060008760a0015190506000841161041e576040517f08c379a0000000000000000000000000000000000000000000000000000000008152600401610415906139b0565b60405180910390fd5b61042e86868a6101400151610e93565b60006104468960000151888589898e60e00151610f6e565b905060006104588a6101200151611303565b61048f576104738483878d61010001518e6101200151611325565b61047d8830611371565b905061048a88338361146c565b6104bf565b61049a84868461146c565b6104a48830611371565b90506104be888885848e61010001518f61012001516115a6565b5b6104d2818861165d90919063ffffffff16565b96508373ffffffffffffffffffffffffffffffffffffffff168873ffffffffffffffffffffffffffffffffffffffff168673ffffffffffffffffffffffffffffffffffffffff167f4cc7e95e48af62690313a0733e93308ac9a73326bc3c29f1788b1191c376d5b68d61018001518e61010001518f6101200151338e8a8c60405161056397969594939291906136d7565b60405180910390a48198505050505050505050919050565b6040517f08c379a00000000000000000000000000000000000000000000000000000000081526004016105ad906138b0565b60405180910390fd5b6000428261012001511015610600576040517f08c379a00000000000000000000000000000000000000000000000000000000081526004016105f790613970565b60405180910390fd5b60008260000151905060008360200151905061061a610e77565b73ffffffffffffffffffffffffffffffffffffffff168273ffffffffffffffffffffffffffffffffffffffff1614610653576000610655565b805b3414610696576040517f08c379a000000000000000000000000000000000000000000000000000000000815260040161068d906138f0565b60405180910390fd5b60008460400151905060008560600151905060008073ffffffffffffffffffffffffffffffffffffffff16876080015173ffffffffffffffffffffffffffffffffffffffff16146106eb5786608001516106ed565b335b905060008760a001519050600081600081518110610734577f4e487b7100000000000000000000000000000000000000000000000000000000600052603260045260246000fd5b60200260200101516020015160018360008151811061077c577f4e487b7100000000000000000000000000000000000000000000000000000000600052603260045260246000fd5b602002602001015160200151516107939190613ce0565b815181106107ca577f4e487b7100000000000000000000000000000000000000000000000000000000600052603260045260246000fd5b60200260200101516000015190506000851161081b576040517f08c379a0000000000000000000000000000000000000000000000000000000008152600401610812906139b0565b60405180910390fd5b61082b87878b6101000151610e93565b6108388960e00151611303565b156108545761085187878b60c001518c60e00151611673565b95505b60005b825160ff168160ff1610156109635760006108d66127106108c8868560ff16815181106108ad577f4e487b7100000000000000000000000000000000000000000000000000000000600052603260045260246000fd5b6020026020010151600001518b6116c090919063ffffffff16565b6116d690919063ffffffff16565b9050600184516108e69190613ce0565b8260ff1614156108fd576108fa8930611371565b90505b61094f8982868560ff168151811061093e577f4e487b7100000000000000000000000000000000000000000000000000000000600052603260045260246000fd5b6020026020010151602001516116ec565b50808061095b90613f17565b915050610857565b5060006109708230611371565b9050858110156109b5576040517f08c379a00000000000000000000000000000000000000000000000000000000081526004016109ac90613930565b60405180910390fd5b6109c28a60e00151611303565b6109e1576109dc828683878e60c001518f60e00151611bd8565b6109ed565b6109ec82858361146c565b5b8173ffffffffffffffffffffffffffffffffffffffff168873ffffffffffffffffffffffffffffffffffffffff168573ffffffffffffffffffffffffffffffffffffffff167fe00361d207b252a464323eb23d45d42583e391f2031acdd2e9fa36efddd43cb08d61014001518e60c001518f60e00151338e898e604051610a7a97969594939291906136d7565b60405180910390a48098505050505050505050919050565b7f8429d542926e6695b59ac6fbdcd9b37e8b1aeb757afab06ab60b1bb5878c3b4981565b7f000000000000000000000000000000000000000000000000000000000000000081565b6000604051602001610aeb90613588565b60405160208183030381529060405280519060200120905090565b6000428261012001511015610b50576040517f08c379a0000000000000000000000000000000000000000000000000000000008152600401610b4790613970565b60405180910390fd5b600082600001519050600083602001519050610b6a610e77565b73ffffffffffffffffffffffffffffffffffffffff168273ffffffffffffffffffffffffffffffffffffffff1614610ba3576000610ba5565b805b3414610be6576040517f08c379a0000000000000000000000000000000000000000000000000000000008152600401610bdd906138f0565b60405180910390fd5b60008460400151905060008560600151905060008073ffffffffffffffffffffffffffffffffffffffff16876080015173ffffffffffffffffffffffffffffffffffffffff1614610c3b578660800151610c3d565b335b905060008760a00151905060008160018351610c599190613ce0565b81518110610c90577f4e487b7100000000000000000000000000000000000000000000000000000000600052603260045260246000fd5b602002602001015160000151905060008511610ce1576040517f08c379a0000000000000000000000000000000000000000000000000000000008152600401610cd8906139b0565b60405180910390fd5b610cf187878b6101000151610e93565b610cfe8960e00151611303565b15610d1a57610d1787878b60c001518c60e00151611673565b95505b610d258787846116ec565b6000610d318230611371565b905085811015610d76576040517f08c379a0000000000000000000000000000000000000000000000000000000008152600401610d6d90613930565b60405180910390fd5b610d838a60e00151611303565b610da257610d9d828683878e60c001518f60e00151611bd8565b610dae565b610dad82858361146c565b5b8173ffffffffffffffffffffffffffffffffffffffff168873ffffffffffffffffffffffffffffffffffffffff168573ffffffffffffffffffffffffffffffffffffffff167fe00361d207b252a464323eb23d45d42583e391f2031acdd2e9fa36efddd43cb08d61014001518e60c001518f60e00151338e898e604051610e3b97969594939291906136d7565b60405180910390a48098505050505050505050919050565b7f000000000000000000000000000000000000000000000000000000000000000081565b600073eeeeeeeeeeeeeeeeeeeeeeeeeeeeeeeeeeeeeeee905090565b610e9b610e77565b73ffffffffffffffffffffffffffffffffffffffff168373ffffffffffffffffffffffffffffffffffffffff1614610f6957610ed78382611c8d565b60008054906101000a900473ffffffffffffffffffffffffffffffffffffffff1673ffffffffffffffffffffffffffffffffffffffff166315dacbea843330866040518563ffffffff1660e01b8152600401610f36949392919061360f565b600060405180830381600087803b158015610f5057600080fd5b505af1158015610f64573d6000803e3d6000fd5b505050505b505050565b60003073ffffffffffffffffffffffffffffffffffffffff166391d148547f8429d542926e6695b59ac6fbdcd9b37e8b1aeb757afab06ab60b1bb5878c3b49896040518363ffffffff1660e01b8152600401610fcb929190613761565b60206040518083038186803b158015610fe357600080fd5b505afa158015610ff7573d6000803e3d6000fd5b505050506040513d601f19601f8201168201806040525081019061101b9190612f00565b61105a576040517f08c379a000000000000000000000000000000000000000000000000000000000815260040161105190613890565b60405180910390fd5b60005b82518110156112a35760008382815181106110a1577f4e487b7100000000000000000000000000000000000000000000000000000000600052603260045260246000fd5b602002602001015190506000806110c36001875161165d90919063ffffffff16565b8414156110f9576110e66110d78a30611371565b8861165d90919063ffffffff16565b90506110f28a30611371565b9150611154565b61112461271061111685604001518b6116c090919063ffffffff16565b6116d690919063ffffffff16565b915061115161271061114385604001518a6116c090919063ffffffff16565b6116d690919063ffffffff16565b90505b60008b73ffffffffffffffffffffffffffffffffffffffff166325deee1e60e01b85600001518d8d87878a602001518b6060015160405160240161119e97969594939291906139eb565b604051602081830303815290604052907bffffffffffffffffffffffffffffffffffffffffffffffffffffffff19166020820180517bffffffffffffffffffffffffffffffffffffffffffffffffffffffff83818316178352505050506040516112089190613571565b600060405180830381855af49150503d8060008114611243576040519150601f19603f3d011682016040523d82523d6000602084013e611248565b606091505b505090508061128c576040517f08c379a0000000000000000000000000000000000000000000000000000000008152600401611283906138d0565b60405180910390fd5b50505050808061129b90613ece565b91505061105d565b5060006112b08630611371565b9050838110156112f5576040517f08c379a00000000000000000000000000000000000000000000000000000000081526004016112ec90613810565b60405180910390fd5b809150509695505050505050565b60008060f883901c1415801561131e57506000618000831614155b9050919050565b60006113318383611e54565b90506000811461135e576000806113488784611f25565b915091506113598789878585611fb9565b965050505b61136986858761146c565b505050505050565b600073eeeeeeeeeeeeeeeeeeeeeeeeeeeeeeeeeeeeeeee73ffffffffffffffffffffffffffffffffffffffff168373ffffffffffffffffffffffffffffffffffffffff1614156113da578173ffffffffffffffffffffffffffffffffffffffff16319050611466565b8273ffffffffffffffffffffffffffffffffffffffff166370a08231836040518263ffffffff1660e01b815260040161141391906135bd565b60206040518083038186803b15801561142b57600080fd5b505afa15801561143f573d6000803e3d6000fd5b505050506040513d601f19601f820116820180604052508101906114639190613031565b90505b92915050565b60008111156115a15773eeeeeeeeeeeeeeeeeeeeeeeeeeeeeeeeeeeeeeee73ffffffffffffffffffffffffffffffffffffffff168373ffffffffffffffffffffffffffffffffffffffff1614156115745760008273ffffffffffffffffffffffffffffffffffffffff1682612710906040516114e7906135a8565b600060405180830381858888f193505050503d8060008114611525576040519150601f19603f3d011682016040523d82523d6000602084013e61152a565b606091505b505090508061156e576040517f08c379a0000000000000000000000000000000000000000000000000000000008152600401611565906137f0565b60405180910390fd5b506115a0565b61159f82828573ffffffffffffffffffffffffffffffffffffffff166121c39092919063ffffffff16565b5b5b505050565b60006115b28383611e54565b905060006115d382876115ce888b61165d90919063ffffffff16565b612249565b9050600080600084146115f3576115ea8885611f25565b80925081935050505b6000831461163a57600080611609858989612283565b91509150611620828561235590919063ffffffff16565b9350611635818461235590919063ffffffff16565b925050505b6116518a3361164c8a8e8b8888611fb9565b61146c565b50505050505050505050565b6000818361166b9190613ce0565b905092915050565b6000806116808484611e54565b9050600081141561169457849150506116b8565b6000806116a18784611f25565b915091506116b28789888585611fb9565b93505050505b949350505050565b600081836116ce9190613c86565b905092915050565b600081836116e49190613c55565b905092915050565b6000815111611730576040517f08c379a000000000000000000000000000000000000000000000000000000000815260040161172790613870565b60405180910390fd5b60005b8151811015611bd257600080821161174b578461179d565b826001836117599190613ce0565b81518110611790577f4e487b7100000000000000000000000000000000000000000000000000000000600052603260045260246000fd5b6020026020010151600001515b905060008383815181106117da577f4e487b7100000000000000000000000000000000000000000000000000000000600052603260045260246000fd5b602002602001015160000151905060008084116117f75785611802565b6118018330611371565b5b905060005b858581518110611840577f4e487b7100000000000000000000000000000000000000000000000000000000600052603260045260246000fd5b60200260200101516040015151811015611bbb57600086868151811061188f577f4e487b7100000000000000000000000000000000000000000000000000000000600052603260045260246000fd5b60200260200101516040015182815181106118d3577f4e487b7100000000000000000000000000000000000000000000000000000000600052603260045260246000fd5b602002602001015190503073ffffffffffffffffffffffffffffffffffffffff166391d148547f8429d542926e6695b59ac6fbdcd9b37e8b1aeb757afab06ab60b1bb5878c3b4983600001516040518363ffffffff1660e01b815260040161193c92919061378a565b60206040518083038186803b15801561195457600080fd5b505afa158015611968573d6000803e3d6000fd5b505050506040513d601f19601f8201168201806040525081019061198c9190612f00565b6119cb576040517f08c379a00000000000000000000000000000000000000000000000000000000081526004016119c290613890565b60405180910390fd5b60008087118015611a335750611a306001898981518110611a15577f4e487b7100000000000000000000000000000000000000000000000000000000600052603260045260246000fd5b6020026020010151604001515161165d90919063ffffffff16565b83145b611a6757611a62612710611a548460200151876116c090919063ffffffff16565b6116d690919063ffffffff16565b611a72565b611a718630611371565b5b90506000826000015173ffffffffffffffffffffffffffffffffffffffff1663e76b146c60e01b88888560008860600151604051602401611ab7959493929190613654565b604051602081830303815290604052907bffffffffffffffffffffffffffffffffffffffffffffffffffffffff19166020820180517bffffffffffffffffffffffffffffffffffffffffffffffffffffffff8381831617835250505050604051611b219190613571565b600060405180830381855af49150503d8060008114611b5c576040519150601f19603f3d011682016040523d82523d6000602084013e611b61565b606091505b5050905080611ba5576040517f08c379a0000000000000000000000000000000000000000000000000000000008152600401611b9c906138d0565b60405180910390fd5b5050508080611bb390613ece565b915050611807565b505050508080611bca90613ece565b915050611733565b50505050565b6000611be48383611e54565b90506000611bf3828789612249565b905060008060008414611c2357611c1a6000841415611c125788611c14565b895b85611f25565b80925081935050505b60008314611c6a57600080611c39858989612283565b91509150611c50828561235590919063ffffffff16565b9350611c65818461235590919063ffffffff16565b925050505b611c818a88611c7c8b8e8b8888611fb9565b61146c565b50505050505050505050565b60e081511415611d6e5760008273ffffffffffffffffffffffffffffffffffffffff1663d505accf60e01b83604051602001611cca929190613549565b604051602081830303815290604052604051611ce69190613571565b6000604051808303816000865af19150503d8060008114611d23576040519150601f19603f3d011682016040523d82523d6000602084013e611d28565b606091505b5050905080611d6c576040517f08c379a0000000000000000000000000000000000000000000000000000000008152600401611d6390613850565b60405180910390fd5b505b61010081511415611e505760008273ffffffffffffffffffffffffffffffffffffffff16638fcbaf0c60e01b83604051602001611dac929190613549565b604051602081830303815290604052604051611dc89190613571565b6000604051808303816000865af19150503d8060008114611e05576040519150601f19603f3d011682016040523d82523d6000602084013e611e0a565b606091505b5050905080611e4e576040517f08c379a0000000000000000000000000000000000000000000000000000000008152600401611e4590613850565b60405180910390fd5b505b5050565b60008073ffffffffffffffffffffffffffffffffffffffff168373ffffffffffffffffffffffffffffffffffffffff161415611e935760009050611f1f565b600060f883901c90506000811415611ead57829150611ecc565b600062010000841614611ec4576000915050611f1f565b613fff831691505b7f00000000000000000000000000000000000000000000000000000000000000008211611ef95781611f1b565b7f00000000000000000000000000000000000000000000000000000000000000005b9150505b92915050565b6000806000611f51612710611f4386886116c090919063ffffffff16565b6116d690919063ffffffff16565b9050611f9a612710611f8c7f0000000000000000000000000000000000000000000000000000000000000000846116c090919063ffffffff16565b6116d690919063ffffffff16565b9250611faf838261165d90919063ffffffff16565b9150509250929050565b600080611fcf838561235590919063ffffffff16565b90506000811415611fe357869150506121ba565b86811115612026576040517f08c379a000000000000000000000000000000000000000000000000000000000815260040161201d90613910565b60405180910390fd5b612051867f00000000000000000000000000000000000000000000000000000000000000008361146c565b600084146120e9577f000000000000000000000000000000000000000000000000000000000000000073ffffffffffffffffffffffffffffffffffffffff1663d1f4354b8688876040518463ffffffff1660e01b81526004016120b6939291906135d8565b600060405180830381600087803b1580156120d057600080fd5b505af11580156120e4573d6000803e3d6000fd5b505050505b600083146121a3577f000000000000000000000000000000000000000000000000000000000000000073ffffffffffffffffffffffffffffffffffffffff1663d1f4354b600160009054906101000a900473ffffffffffffffffffffffffffffffffffffffff1688866040518463ffffffff1660e01b8152600401612170939291906135d8565b600060405180830381600087803b15801561218a57600080fd5b505af115801561219e573d6000803e3d6000fd5b505050505b6121b6818861165d90919063ffffffff16565b9150505b95945050505050565b6122448363a9059cbb60e01b84846040516024016121e29291906136ae565b604051602081830303815290604052907bffffffffffffffffffffffffffffffffffffffffffffffffffffffff19166020820180517bffffffffffffffffffffffffffffffffffffffffffffffffffffffff838183161783525050505061236b565b505050565b60006032841115801561225b57508183115b61226657600061227a565b612279828461165d90919063ffffffff16565b5b90509392505050565b60008061229a6002866116d690919063ffffffff16565b9050600073ffffffffffffffffffffffffffffffffffffffff168473ffffffffffffffffffffffffffffffffffffffff161461234d57600060f884901c90506000811461234b57600062010000851614612338576000613fff85169050612330612710612322612710841161230f5783612313565b6127105b866116c090919063ffffffff16565b6116d690919063ffffffff16565b93505061234a565b600061400085161415612349578192505b5b5b505b935093915050565b600081836123639190613bff565b905092915050565b60006123cd826040518060400160405280602081526020017f5361666545524332303a206c6f772d6c6576656c2063616c6c206661696c65648152508573ffffffffffffffffffffffffffffffffffffffff166124329092919063ffffffff16565b905060008151111561242d57808060200190518101906123ed9190612f00565b61242c576040517f08c379a000000000000000000000000000000000000000000000000000000000815260040161242390613990565b60405180910390fd5b5b505050565b6060612441848460008561244a565b90509392505050565b60608247101561248f576040517f08c379a000000000000000000000000000000000000000000000000000000000815260040161248690613830565b60405180910390fd5b6124988561255e565b6124d7576040517f08c379a00000000000000000000000000000000000000000000000000000000081526004016124ce90613950565b60405180910390fd5b6000808673ffffffffffffffffffffffffffffffffffffffff1685876040516125009190613571565b60006040518083038185875af1925050503d806000811461253d576040519150601f19603f3d011682016040523d82523d6000602084013e612542565b606091505b5091509150612552828286612571565b92505050949350505050565b600080823b905060008111915050919050565b60608315612581578290506125d1565b6000835111156125945782518084602001fd5b816040517f08c379a00000000000000000000000000000000000000000000000000000000081526004016125c891906137ce565b60405180910390fd5b9392505050565b60006125eb6125e684613a86565b613a61565b9050808382526020820190508260005b8581101561262b578135850161261188826128fa565b8452602084019350602083019250506001810190506125fb565b5050509392505050565b600061264861264384613ab2565b613a61565b9050808382526020820190508260005b85811015612688578135850161266e8882612aea565b845260208401935060208301925050600181019050612658565b5050509392505050565b60006126a56126a084613ade565b613a61565b9050808382526020820190508260005b858110156126e557813585016126cb8882612c86565b8452602084019350602083019250506001810190506126b5565b5050509392505050565b60006127026126fd84613b0a565b613a61565b9050808382526020820190508260005b8581101561274257813585016127288882612cfe565b845260208401935060208301925050600181019050612712565b5050509392505050565b600061275f61275a84613b36565b613a61565b90508281526020810184848401111561277757600080fd5b612782848285613e5b565b509392505050565b60008135905061279981614363565b92915050565b6000813590506127ae8161437a565b92915050565b600082601f8301126127c557600080fd5b81356127d58482602086016125d8565b91505092915050565b600082601f8301126127ef57600080fd5b81356127ff848260208601612635565b91505092915050565b600082601f83011261281957600080fd5b8135612829848260208601612692565b91505092915050565b600082601f83011261284357600080fd5b81356128538482602086016126ef565b91505092915050565b60008151905061286b81614391565b92915050565b600081359050612880816143a8565b92915050565b60008083601f84011261289857600080fd5b8235905067ffffffffffffffff8111156128b157600080fd5b6020830191508360018202830111156128c957600080fd5b9250929050565b600082601f8301126128e157600080fd5b81356128f184826020860161274c565b91505092915050565b60006080828403121561290c57600080fd5b6129166080613a61565b905060006129268482850161279f565b600083015250602061293a84828501612ed6565b602083015250604061294e84828501612ed6565b604083015250606082013567ffffffffffffffff81111561296e57600080fd5b61297a84828501612832565b60608301525092915050565b60006101a0828403121561299957600080fd5b6129a46101a0613a61565b905060006129b48482850161278a565b60008301525060206129c88482850161278a565b60208301525060406129dc8482850161278a565b60408301525060606129f084828501612ed6565b6060830152506080612a0484828501612ed6565b60808301525060a0612a1884828501612ed6565b60a08301525060c0612a2c8482850161279f565b60c08301525060e082013567ffffffffffffffff811115612a4c57600080fd5b612a5884828501612832565b60e083015250610100612a6d8482850161279f565b61010083015250610120612a8384828501612ed6565b6101208301525061014082013567ffffffffffffffff811115612aa557600080fd5b612ab1848285016128d0565b61014083015250610160612ac784828501612ed6565b61016083015250610180612add84828501612871565b6101808301525092915050565b600060408284031215612afc57600080fd5b612b066040613a61565b90506000612b1684828501612ed6565b600083015250602082013567ffffffffffffffff811115612b3657600080fd5b612b4284828501612808565b60208301525092915050565b60006101608284031215612b6157600080fd5b612b6c610160613a61565b90506000612b7c8482850161278a565b6000830152506020612b9084828501612ed6565b6020830152506040612ba484828501612ed6565b6040830152506060612bb884828501612ed6565b6060830152506080612bcc8482850161279f565b60808301525060a082013567ffffffffffffffff811115612bec57600080fd5b612bf8848285016127de565b60a08301525060c0612c0c8482850161279f565b60c08301525060e0612c2084828501612ed6565b60e08301525061010082013567ffffffffffffffff811115612c4157600080fd5b612c4d848285016128d0565b61010083015250610120612c6384828501612ed6565b61012083015250610140612c7984828501612871565b6101408301525092915050565b600060608284031215612c9857600080fd5b612ca26060613a61565b90506000612cb28482850161278a565b6000830152506020612cc684828501612ed6565b602083015250604082013567ffffffffffffffff811115612ce657600080fd5b612cf2848285016127b4565b60408301525092915050565b600060a08284031215612d1057600080fd5b612d1a60a0613a61565b90506000612d2a84828501612ed6565b6000830152506020612d3e8482850161278a565b6020830152506040612d5284828501612ed6565b604083015250606082013567ffffffffffffffff811115612d7257600080fd5b612d7e848285016128d0565b6060830152506080612d9284828501612ed6565b60808301525092915050565b60006101608284031215612db157600080fd5b612dbc610160613a61565b90506000612dcc8482850161278a565b6000830152506020612de084828501612ed6565b6020830152506040612df484828501612ed6565b6040830152506060612e0884828501612ed6565b6060830152506080612e1c8482850161279f565b60808301525060a082013567ffffffffffffffff811115612e3c57600080fd5b612e4884828501612808565b60a08301525060c0612e5c8482850161279f565b60c08301525060e0612e7084828501612ed6565b60e08301525061010082013567ffffffffffffffff811115612e9157600080fd5b612e9d848285016128d0565b61010083015250610120612eb384828501612ed6565b61012083015250610140612ec984828501612871565b6101408301525092915050565b600081359050612ee5816143bf565b92915050565b600081519050612efa816143bf565b92915050565b600060208284031215612f1257600080fd5b6000612f208482850161285c565b91505092915050565b60008060208385031215612f3c57600080fd5b600083013567ffffffffffffffff811115612f5657600080fd5b612f6285828601612886565b92509250509250929050565b600060208284031215612f8057600080fd5b600082013567ffffffffffffffff811115612f9a57600080fd5b612fa684828501612986565b91505092915050565b600060208284031215612fc157600080fd5b600082013567ffffffffffffffff811115612fdb57600080fd5b612fe784828501612b4e565b91505092915050565b60006020828403121561300257600080fd5b600082013567ffffffffffffffff81111561301c57600080fd5b61302884828501612d9e565b91505092915050565b60006020828403121561304357600080fd5b600061305184828501612eeb565b91505092915050565b600061306683836134b5565b905092915050565b61307781613ddd565b82525050565b61308681613d14565b82525050565b61309581613d14565b82525050565b60006130a682613b77565b6130b08185613ba5565b9350836020820285016130c285613b67565b8060005b858110156130fe57848403895281516130df858261305a565b94506130ea83613b98565b925060208a019950506001810190506130c6565b50829750879550505050505092915050565b61311981613d44565b82525050565b61312881613d70565b82525050565b61313f61313a82613d7a565b613f41565b82525050565b600061315082613b82565b61315a8185613bb6565b935061316a818560208601613e6a565b61317381613fd8565b840191505092915050565b600061318982613b82565b6131938185613bc7565b93506131a3818560208601613e6a565b6131ac81613fd8565b840191505092915050565b60006131c282613b82565b6131cc8185613bd8565b93506131dc818560208601613e6a565b80840191505092915050565b6131f181613def565b82525050565b61320081613e13565b82525050565b600061321182613b8d565b61321b8185613be3565b935061322b818560208601613e6a565b61323481613fd8565b840191505092915050565b600061324c601883613be3565b915061325782613fe9565b602082019050919050565b600061326f600583613bf4565b915061327a82614012565b600582019050919050565b6000613292603783613be3565b915061329d8261403b565b604082019050919050565b60006132b5602683613be3565b91506132c08261408a565b604082019050919050565b60006132d8600d83613be3565b91506132e3826140d9565b602082019050919050565b60006132fb601a83613be3565b915061330682614102565b602082019050919050565b600061331e601883613be3565b91506133298261412b565b602082019050919050565b6000613341601683613be3565b915061334c82614154565b602082019050919050565b6000613364601683613be3565b915061336f8261417d565b602082019050919050565b6000613387601383613be3565b9150613392826141a6565b602082019050919050565b60006133aa602483613be3565b91506133b5826141cf565b604082019050919050565b60006133cd601083613bf4565b91506133d88261421e565b601082019050919050565b60006133f0603083613be3565b91506133fb82614247565b604082019050919050565b6000613413600083613bd8565b915061341e82614296565b600082019050919050565b6000613436601d83613be3565b915061344182614299565b602082019050919050565b6000613459601183613be3565b9150613464826142c2565b602082019050919050565b600061347c602a83613be3565b9150613487826142eb565b604082019050919050565b600061349f601683613be3565b91506134aa8261433a565b602082019050919050565b600060a0830160008301516134cd600086018261352b565b5060208301516134e0602086018261307d565b5060408301516134f3604086018261352b565b506060830151848203606086015261350b8282613145565b9150506080830151613520608086018261352b565b508091505092915050565b61353481613dc6565b82525050565b61354381613dc6565b82525050565b6000613555828561312e565b60048201915061356582846131b7565b91508190509392505050565b600061357d82846131b7565b915081905092915050565b6000613593826133c0565b915061359e82613262565b9150819050919050565b60006135b382613406565b9150819050919050565b60006020820190506135d2600083018461308c565b92915050565b60006060820190506135ed600083018661306e565b6135fa60208301856131e8565b613607604083018461353a565b949350505050565b6000608082019050613624600083018761308c565b613631602083018661308c565b61363e604083018561308c565b61364b606083018461353a565b95945050505050565b600060a082019050613669600083018861308c565b613676602083018761308c565b613683604083018661353a565b613690606083018561353a565b81810360808301526136a2818461309b565b90509695505050505050565b60006040820190506136c3600083018561308c565b6136d0602083018461353a565b9392505050565b600060e0820190506136ec600083018a613110565b6136f9602083018961306e565b613706604083018861353a565b613713606083018761308c565b613720608083018661353a565b61372d60a083018561353a565b61373a60c083018461353a565b98975050505050505050565b600060208201905061375b600083018461311f565b92915050565b6000604082019050613776600083018561311f565b613783602083018461308c565b9392505050565b600060408201905061379f600083018561311f565b6137ac602083018461306e565b9392505050565b60006020820190506137c860008301846131f7565b92915050565b600060208201905081810360008301526137e88184613206565b905092915050565b600060208201905081810360008301526138098161323f565b9050919050565b6000602082019050818103600083015261382981613285565b9050919050565b60006020820190508181036000830152613849816132a8565b9050919050565b60006020820190508181036000830152613869816132cb565b9050919050565b60006020820190508181036000830152613889816132ee565b9050919050565b600060208201905081810360008301526138a981613311565b9050919050565b600060208201905081810360008301526138c981613334565b9050919050565b600060208201905081810360008301526138e981613357565b9050919050565b600060208201905081810360008301526139098161337a565b9050919050565b600060208201905081810360008301526139298161339d565b9050919050565b60006020820190508181036000830152613949816133e3565b9050919050565b6000602082019050818103600083015261396981613429565b9050919050565b600060208201905081810360008301526139898161344c565b9050919050565b600060208201905081810360008301526139a98161346f565b9050919050565b600060208201905081810360008301526139c981613492565b9050919050565b60006020820190506139e5600083018461353a565b92915050565b600060e082019050613a00600083018a61353a565b613a0d602083018961308c565b613a1a604083018861308c565b613a27606083018761353a565b613a34608083018661353a565b613a4160a083018561308c565b81810360c0830152613a53818461317e565b905098975050505050505050565b6000613a6b613a7c565b9050613a778282613e9d565b919050565b6000604051905090565b600067ffffffffffffffff821115613aa157613aa0613fa9565b5b602082029050602081019050919050565b600067ffffffffffffffff821115613acd57613acc613fa9565b5b602082029050602081019050919050565b600067ffffffffffffffff821115613af957613af8613fa9565b5b602082029050602081019050919050565b600067ffffffffffffffff821115613b2557613b24613fa9565b5b602082029050602081019050919050565b600067ffffffffffffffff821115613b5157613b50613fa9565b5b613b5a82613fd8565b9050602081019050919050565b6000819050602082019050919050565b600081519050919050565b600081519050919050565b600081519050919050565b6000602082019050919050565b600082825260208201905092915050565b600082825260208201905092915050565b600082825260208201905092915050565b600081905092915050565b600082825260208201905092915050565b600081905092915050565b6000613c0a82613dc6565b9150613c1583613dc6565b9250827fffffffffffffffffffffffffffffffffffffffffffffffffffffffffffffffff03821115613c4a57613c49613f4b565b5b828201905092915050565b6000613c6082613dc6565b9150613c6b83613dc6565b925082613c7b57613c7a613f7a565b5b828204905092915050565b6000613c9182613dc6565b9150613c9c83613dc6565b9250817fffffffffffffffffffffffffffffffffffffffffffffffffffffffffffffffff0483118215151615613cd557613cd4613f4b565b5b828202905092915050565b6000613ceb82613dc6565b9150613cf683613dc6565b925082821015613d0957613d08613f4b565b5b828203905092915050565b6000613d1f82613da6565b9050919050565b6000613d3182613da6565b9050919050565b60008115159050919050565b60007fffffffffffffffffffffffffffffffff0000000000000000000000000000000082169050919050565b6000819050919050565b60007fffffffff0000000000000000000000000000000000000000000000000000000082169050919050565b600073ffffffffffffffffffffffffffffffffffffffff82169050919050565b6000819050919050565b600060ff82169050919050565b6000613de882613e37565b9050919050565b6000613dfa82613e01565b9050919050565b6000613e0c82613da6565b9050919050565b6000613e1e82613e25565b9050919050565b6000613e3082613da6565b9050919050565b6000613e4282613e49565b9050919050565b6000613e5482613da6565b9050919050565b82818337600083830152505050565b60005b83811015613e88578082015181840152602081019050613e6d565b83811115613e97576000848401525b50505050565b613ea682613fd8565b810181811067ffffffffffffffff82111715613ec557613ec4613fa9565b5b80604052505050565b6000613ed982613dc6565b91507fffffffffffffffffffffffffffffffffffffffffffffffffffffffffffffffff821415613f0c57613f0b613f4b565b5b600182019050919050565b6000613f2282613dd0565b915060ff821415613f3657613f35613f4b565b5b600182019050919050565b6000819050919050565b7f4e487b7100000000000000000000000000000000000000000000000000000000600052601160045260246000fd5b7f4e487b7100000000000000000000000000000000000000000000000000000000600052601260045260246000fd5b7f4e487b7100000000000000000000000000000000000000000000000000000000600052604160045260246000fd5b6000601f19601f8301169050919050565b7f4661696c656420746f207472616e736665722045746865720000000000000000600082015250565b7f312e302e30000000000000000000000000000000000000000000000000000000600082015250565b7f526563656976656420616d6f756e74206f6620746f6b656e7320617265206c6560008201527f7373207468656e20657870656374656420746f6b656e73000000000000000000602082015250565b7f416464726573733a20696e73756666696369656e742062616c616e636520666f60008201527f722063616c6c0000000000000000000000000000000000000000000000000000602082015250565b7f5065726d6974206661696c656400000000000000000000000000000000000000600082015250565b7f50617468206e6f742070726f766964656420666f722073776170000000000000600082015250565b7f45786368616e6765206e6f742077686974656c69737465640000000000000000600082015250565b7f4d4554484f44204e4f5420494d504c454d454e54454400000000000000000000600082015250565b7f43616c6c20746f2061646170746572206661696c656400000000000000000000600082015250565b7f496e636f7272656374206d73672e76616c756500000000000000000000000000600082015250565b7f496e73756666696369656e742062616c616e636520746f2070617920666f722060008201527f6665657300000000000000000000000000000000000000000000000000000000602082015250565b7f4d554c5449504154485f524f5554455200000000000000000000000000000000600082015250565b7f526563656976656420616d6f756e74206f6620746f6b656e7320617265206c6560008201527f7373207468656e20657870656374656400000000000000000000000000000000602082015250565b50565b7f416464726573733a2063616c6c20746f206e6f6e2d636f6e7472616374000000600082015250565b7f446561646c696e65206272656163686564000000000000000000000000000000600082015250565b7f5361666545524332303a204552433230206f7065726174696f6e20646964206e60008201527f6f74207375636365656400000000000000000000000000000000000000000000602082015250565b7f546f20616d6f756e742063616e206e6f74206265203000000000000000000000600082015250565b61436c81613d14565b811461437757600080fd5b50565b61438381613d26565b811461438e57600080fd5b50565b61439a81613d38565b81146143a557600080fd5b50565b6143b181613d44565b81146143bc57600080fd5b50565b6143c881613dc6565b81146143d357600080fd5b5056fea2646970667358221220e1459ac45a5df31c1aa756e57c42c3cbd7b70ad3497d6f70595e5e50662b52c464736f6c63430008010033",
  "immutableReferences": {
    "4942": [
      {
        "length": 32,
        "start": 595
      },
      {
        "length": 32,
        "start": 8030
      }
    ],
    "4944": [
      {
        "length": 32,
        "start": 3669
      },
      {
        "length": 32,
        "start": 7886
      },
      {
        "length": 32,
        "start": 7931
      }
    ],
    "4947": [
      {
        "length": 32,
        "start": 2744
      },
      {
        "length": 32,
        "start": 8236
      },
      {
        "length": 32,
        "start": 8283
      },
      {
        "length": 32,
        "start": 8435
      }
    ]
  },
  "source": "/*solhint-disable avoid-low-level-calls*/\r\n// SPDX-License-Identifier: ISC\r\n\r\npragma solidity 0.8.1;\r\npragma abicoder v2;\r\n\r\nimport \"./Route/IRouter.sol\";\r\nimport \"./IAugustusSwapperV5.sol\";\r\nimport \"./adapters/IAdapter.sol\";\r\nimport \"./adapters/IBuyAdapter.sol\";\r\nimport \"./fee/FeeModel.sol\";\r\nimport \"./fee/IFeeClaimer.sol\";\r\n\r\ncontract MultiPath is FeeModel, IRouter {\r\n    using SafeMath for uint256;\r\n\r\n    /*solhint-disable no-empty-blocks*/\r\n    constructor(\r\n        uint256 _partnerSharePercent,\r\n        uint256 _maxFeePercent ,\r\n        IFeeClaimer _feeClaimer\r\n    ) public FeeModel(_partnerSharePercent, _maxFeePercent, _feeClaimer) {}\r\n\r\n    /*solhint-enable no-empty-blocks*/\r\n\r\n    function initialize(bytes calldata) external override {\r\n        revert(\"METHOD NOT IMPLEMENTED\");\r\n    }\r\n\r\n    function getKey() external pure override returns (bytes32) {\r\n        return keccak256(abi.encodePacked(\"MULTIPATH_ROUTER\", \"1.0.0\"));\r\n    }\r\n\r\n    /**\r\n     * @dev The function which performs the multi path swap.\r\n     * @param data Data required to perform swap.\r\n     */\r\n    function multiSwap(Utils.SellData memory data) public payable returns (uint256) {\r\n        require(data.deadline >= block.timestamp, \"Deadline breached\");\r\n\r\n        address fromToken = data.fromToken;\r\n        uint256 fromAmount = data.fromAmount;\r\n        require(msg.value == (fromToken == Utils.ethAddress() ? fromAmount : 0), \"Incorrect msg.value\");\r\n        uint256 toAmount = data.toAmount;\r\n        uint256 expectedAmount = data.expectedAmount;\r\n        address payable beneficiary = data.beneficiary == address(0) ? payable(msg.sender) : payable(data.beneficiary);\r\n        Utils.Path[] memory path = data.path;\r\n        address toToken = path[path.length - 1].to;\r\n\r\n        require(toAmount > 0, \"To amount can not be 0\");\r\n\r\n        //If source token is not ETH than transfer required amount of tokens\r\n        //from sender to this contract\r\n        transferTokensFromProxy(fromToken, fromAmount, data.permit);\r\n        if (_isTakeFeeFromSrcToken(data.feePercent)) {\r\n            // take fee from source token\r\n            fromAmount = takeFromTokenFee(fromToken, fromAmount, data.partner, data.feePercent);\r\n        }\r\n\r\n        performSwap(fromToken, fromAmount, path);\r\n\r\n        uint256 receivedAmount = Utils.tokenBalance(toToken, address(this));\r\n\r\n        require(receivedAmount >= toAmount, \"Received amount of tokens are less then expected\");\r\n\r\n        if (!_isTakeFeeFromSrcToken(data.feePercent)) {\r\n            // take fee from dest token\r\n            takeToTokenFeeSlippageAndTransfer(\r\n                toToken,\r\n                expectedAmount,\r\n                receivedAmount,\r\n                beneficiary,\r\n                data.partner,\r\n                data.feePercent\r\n            );\r\n        } else {\r\n            // Fee is already taken from fromToken\r\n            // Transfer toToken to beneficiary\r\n            Utils.transferTokens(toToken, beneficiary, receivedAmount);\r\n        }\r\n\r\n        emit SwappedV3(\r\n            data.uuid,\r\n            data.partner,\r\n            data.feePercent,\r\n            msg.sender,\r\n            beneficiary,\r\n            fromToken,\r\n            toToken,\r\n            fromAmount,\r\n            receivedAmount,\r\n            expectedAmount\r\n        );\r\n\r\n        return receivedAmount;\r\n    }\r\n\r\n    /**\r\n     * @dev The function which performs the single path buy.\r\n     * @param data Data required to perform swap.\r\n     */\r\n    function buy(Utils.BuyData memory data) public payable returns (uint256) {\r\n        require(data.deadline >= block.timestamp, \"Deadline breached\");\r\n\r\n        address fromToken = data.fromToken;\r\n        uint256 fromAmount = data.fromAmount;\r\n        require(msg.value == (fromToken == Utils.ethAddress() ? fromAmount : 0), \"Incorrect msg.value\");\r\n        uint256 toAmount = data.toAmount;\r\n        address payable beneficiary = data.beneficiary == address(0) ? payable(msg.sender) : payable(data.beneficiary);\r\n        address toToken = data.toToken;\r\n        uint256 expectedAmount = data.expectedAmount;\r\n\r\n        require(toAmount > 0, \"To amount can not be 0\");\r\n\r\n        //If source token is not ETH than transfer required amount of tokens\r\n        //from sender to this contract\r\n        transferTokensFromProxy(fromToken, fromAmount, data.permit);\r\n\r\n        uint256 receivedAmount = performBuy(data.adapter, fromToken, toToken, fromAmount, toAmount, data.route);\r\n\r\n        uint256 remainingAmount;\r\n\r\n        if (!_isTakeFeeFromSrcToken(data.feePercent)) {\r\n            // take fee from dest token\r\n            takeToTokenFeeAndTransfer(toToken, receivedAmount, beneficiary, data.partner, data.feePercent);\r\n\r\n            // Transfer fromToken back to sender\r\n            remainingAmount = Utils.tokenBalance(fromToken, address(this));\r\n            Utils.transferTokens(fromToken, payable(msg.sender), remainingAmount);\r\n        } else {\r\n            // Transfer toToken to beneficiary\r\n            Utils.transferTokens(toToken, beneficiary, receivedAmount);\r\n\r\n            // take slippage from src token\r\n            remainingAmount = Utils.tokenBalance(fromToken, address(this));\r\n            takeFromTokenFeeSlippageAndTransfer(\r\n                fromToken,\r\n                fromAmount,\r\n                expectedAmount,\r\n                remainingAmount,\r\n                data.partner,\r\n                data.feePercent\r\n            );\r\n        }\r\n\r\n        fromAmount = fromAmount.sub(remainingAmount);\r\n        emit BoughtV3(\r\n            data.uuid,\r\n            data.partner,\r\n            data.feePercent,\r\n            msg.sender,\r\n            beneficiary,\r\n            fromToken,\r\n            toToken,\r\n            fromAmount,\r\n            receivedAmount,\r\n            expectedAmount\r\n        );\r\n\r\n        return receivedAmount;\r\n    }\r\n\r\n    /**\r\n     * @dev The function which performs the mega path swap.\r\n     * @param data Data required to perform swap.\r\n     */\r\n    function megaSwap(Utils.MegaSwapSellData memory data) public payable returns (uint256) {\r\n        require(data.deadline >= block.timestamp, \"Deadline breached\");\r\n        address fromToken = data.fromToken;\r\n        uint256 fromAmount = data.fromAmount;\r\n        require(msg.value == (fromToken == Utils.ethAddress() ? fromAmount : 0), \"Incorrect msg.value\");\r\n        uint256 toAmount = data.toAmount;\r\n        uint256 expectedAmount = data.expectedAmount;\r\n        address payable beneficiary = data.beneficiary == address(0) ? payable(msg.sender) : payable(data.beneficiary);\r\n        Utils.MegaSwapPath[] memory path = data.path;\r\n        address toToken = path[0].path[path[0].path.length - 1].to;\r\n\r\n        require(toAmount > 0, \"To amount can not be 0\");\r\n\r\n        //if fromToken is not ETH then transfer tokens from user to this contract\r\n        transferTokensFromProxy(fromToken, fromAmount, data.permit);\r\n        if (_isTakeFeeFromSrcToken(data.feePercent)) {\r\n            // take fee from source token\r\n            fromAmount = takeFromTokenFee(fromToken, fromAmount, data.partner, data.feePercent);\r\n        }\r\n\r\n        for (uint8 i = 0; i < uint8(path.length); i++) {\r\n            uint256 _fromAmount = fromAmount.mul(path[i].fromAmountPercent).div(10000);\r\n            if (i == path.length - 1) {\r\n                _fromAmount = Utils.tokenBalance(address(fromToken), address(this));\r\n            }\r\n            performSwap(fromToken, _fromAmount, path[i].path);\r\n        }\r\n\r\n        uint256 receivedAmount = Utils.tokenBalance(toToken, address(this));\r\n\r\n        require(receivedAmount >= toAmount, \"Received amount of tokens are less then expected\");\r\n\r\n        if (!_isTakeFeeFromSrcToken(data.feePercent)) {\r\n            // take fee from dest token\r\n            takeToTokenFeeSlippageAndTransfer(\r\n                toToken,\r\n                expectedAmount,\r\n                receivedAmount,\r\n                beneficiary,\r\n                data.partner,\r\n                data.feePercent\r\n            );\r\n        } else {\r\n            // Fee is already taken from fromToken\r\n            // Transfer toToken to beneficiary\r\n            Utils.transferTokens(toToken, beneficiary, receivedAmount);\r\n        }\r\n\r\n        emit SwappedV3(\r\n            data.uuid,\r\n            data.partner,\r\n            data.feePercent,\r\n            msg.sender,\r\n            beneficiary,\r\n            fromToken,\r\n            toToken,\r\n            fromAmount,\r\n            receivedAmount,\r\n            expectedAmount\r\n        );\r\n\r\n        return receivedAmount;\r\n    }\r\n\r\n    //Helper function to perform swap\r\n    function performSwap(\r\n        address fromToken,\r\n        uint256 fromAmount,\r\n        Utils.Path[] memory path\r\n    ) private {\r\n        require(path.length > 0, \"Path not provided for swap\");\r\n\r\n        //Assuming path will not be too long to reach out of gas exception\r\n        for (uint256 i = 0; i < path.length; i++) {\r\n            //_fromToken will be either fromToken or toToken of the previous path\r\n            address _fromToken = i > 0 ? path[i - 1].to : fromToken;\r\n            address _toToken = path[i].to;\r\n\r\n            uint256 _fromAmount = i > 0 ? Utils.tokenBalance(_fromToken, address(this)) : fromAmount;\r\n\r\n            for (uint256 j = 0; j < path[i].adapters.length; j++) {\r\n                Utils.Adapter memory adapter = path[i].adapters[j];\r\n\r\n                //Check if exchange is supported\r\n                require(\r\n                    IAugustusSwapperV5(address(this)).hasRole(WHITELISTED_ROLE, adapter.adapter),\r\n                    \"Exchange not whitelisted\"\r\n                );\r\n\r\n                //Calculating tokens to be passed to the relevant exchange\r\n                //percentage should be 200 for 2%\r\n                uint256 fromAmountSlice = i > 0 && j == path[i].adapters.length.sub(1)\r\n                    ? Utils.tokenBalance(address(_fromToken), address(this))\r\n                    : _fromAmount.mul(adapter.percent).div(10000);\r\n\r\n                //DELEGATING CALL TO THE ADAPTER\r\n                (bool success, ) = adapter.adapter.delegatecall(\r\n                    abi.encodeWithSelector(\r\n                        IAdapter.swap.selector,\r\n                        _fromToken,\r\n                        _toToken,\r\n                        fromAmountSlice,\r\n                        uint256(0), //adapter.networkFee,\r\n                        adapter.route\r\n                    )\r\n                );\r\n\r\n                require(success, \"Call to adapter failed\");\r\n            }\r\n        }\r\n    }\r\n\r\n    //Helper function to perform swap\r\n    function performBuy(\r\n        address adapter,\r\n        address fromToken,\r\n        address toToken,\r\n        uint256 fromAmount,\r\n        uint256 toAmount,\r\n        Utils.Route[] memory routes\r\n    ) private returns (uint256) {\r\n        //Check if exchange is supported\r\n        require(IAugustusSwapperV5(address(this)).hasRole(WHITELISTED_ROLE, adapter), \"Exchange not whitelisted\");\r\n\r\n        for (uint256 j = 0; j < routes.length; j++) {\r\n            Utils.Route memory route = routes[j];\r\n\r\n            uint256 fromAmountSlice;\r\n            uint256 toAmountSlice;\r\n\r\n            //last route\r\n            if (j == routes.length.sub(1)) {\r\n                toAmountSlice = toAmount.sub(Utils.tokenBalance(address(toToken), address(this)));\r\n\r\n                fromAmountSlice = Utils.tokenBalance(address(fromToken), address(this));\r\n            } else {\r\n                fromAmountSlice = fromAmount.mul(route.percent).div(10000);\r\n                toAmountSlice = toAmount.mul(route.percent).div(10000);\r\n            }\r\n\r\n            //delegate Call to the exchange\r\n            (bool success, ) = adapter.delegatecall(\r\n                abi.encodeWithSelector(\r\n                    IBuyAdapter.buy.selector,\r\n                    route.index,\r\n                    fromToken,\r\n                    toToken,\r\n                    fromAmountSlice,\r\n                    toAmountSlice,\r\n                    route.targetExchange,\r\n                    route.payload\r\n                )\r\n            );\r\n            require(success, \"Call to adapter failed\");\r\n        }\r\n\r\n        uint256 receivedAmount = Utils.tokenBalance(toToken, address(this));\r\n        require(receivedAmount >= toAmount, \"Received amount of tokens are less then expected tokens\");\r\n\r\n        return receivedAmount;\r\n    }\r\n\r\n    function transferTokensFromProxy(\r\n        address token,\r\n        uint256 amount,\r\n        bytes memory permit\r\n    ) private {\r\n        if (token != Utils.ethAddress()) {\r\n            Utils.permit(token, permit);\r\n            tokenTransferProxy.transferFrom(token, msg.sender, address(this), amount);\r\n        }\r\n    }\r\n}",
  "sourcePath": "C:\\Users\\23396\\multiPath\\contracts\\MultiPath.sol",
  "compiler": {
    "name": "solc",
    "version": "0.8.1+commit.df193b15.Emscripten.clang"
  },
  "schemaVersion": "3.4.7",
  "updatedAt": "2022-07-04T14:21:43.421Z",
  "devdoc": {
    "kind": "dev",
    "methods": {
      "buy((address,address,address,uint256,uint256,uint256,address,(uint256,address,uint256,bytes,uint256)[],address,uint256,bytes,uint256,bytes16))": {
        "details": "The function which performs the single path buy.",
        "params": {
          "data": "Data required to perform swap."
        }
      },
      "getKey()": {
        "details": "Returns unique identifier for the router"
      },
      "megaSwap((address,uint256,uint256,uint256,address,(uint256,(address,uint256,(address,uint256,uint256,(uint256,address,uint256,bytes,uint256)[])[])[])[],address,uint256,bytes,uint256,bytes16))": {
        "details": "The function which performs the mega path swap.",
        "params": {
          "data": "Data required to perform swap."
        }
      },
      "multiSwap((address,uint256,uint256,uint256,address,(address,uint256,(address,uint256,uint256,(uint256,address,uint256,bytes,uint256)[])[])[],address,uint256,bytes,uint256,bytes16))": {
        "details": "The function which performs the multi path swap.",
        "params": {
          "data": "Data required to perform swap."
        }
      }
    },
    "version": 1
  },
  "userdoc": {
    "kind": "user",
    "methods": {},
    "version": 1
  }
}